{
  "contractName": "MockActor",
  "abi": [
    {
      "inputs": [
        {
          "internalType": "address",
          "name": "_predicty",
          "type": "address"
        }
      ],
      "stateMutability": "nonpayable",
      "type": "constructor"
    },
    {
      "stateMutability": "payable",
      "type": "fallback"
    },
    {
      "stateMutability": "payable",
      "type": "receive"
    },
    {
      "inputs": [
        {
          "internalType": "uint256",
          "name": "_bet",
          "type": "uint256"
        },
        {
          "internalType": "uint256",
          "name": "_option",
          "type": "uint256"
        }
      ],
      "name": "placeBet",
      "outputs": [
        {
          "internalType": "bool",
          "name": "",
          "type": "bool"
        }
      ],
      "stateMutability": "payable",
      "type": "function"
    },
    {
      "inputs": [],
      "name": "settleMarket",
      "outputs": [
        {
          "internalType": "bool",
          "name": "",
          "type": "bool"
        }
      ],
      "stateMutability": "nonpayable",
      "type": "function"
    },
    {
      "inputs": [],
      "name": "createNewMarket",
      "outputs": [
        {
          "internalType": "bool",
          "name": "",
          "type": "bool"
        }
      ],
      "stateMutability": "nonpayable",
      "type": "function"
    },
    {
      "inputs": [
        {
          "internalType": "uint256",
          "name": "_marketId",
          "type": "uint256"
        }
      ],
      "name": "withdrawWinnings",
      "outputs": [
        {
          "internalType": "bool",
          "name": "",
          "type": "bool"
        }
      ],
      "stateMutability": "nonpayable",
      "type": "function"
    },
    {
      "inputs": [
        {
          "internalType": "uint256",
          "name": "_marketId",
          "type": "uint256"
        }
      ],
      "name": "withdrawCreationReward",
      "outputs": [
        {
          "internalType": "bool",
          "name": "",
          "type": "bool"
        }
      ],
      "stateMutability": "nonpayable",
      "type": "function"
    },
    {
      "inputs": [
        {
          "internalType": "uint256",
          "name": "_marketId",
          "type": "uint256"
        }
      ],
      "name": "withdrawSettlementReward",
      "outputs": [
        {
          "internalType": "bool",
          "name": "",
          "type": "bool"
        }
      ],
      "stateMutability": "nonpayable",
      "type": "function"
    },
    {
      "inputs": [],
      "name": "getBalance",
      "outputs": [
        {
          "internalType": "uint256",
          "name": "",
          "type": "uint256"
        }
      ],
      "stateMutability": "view",
      "type": "function"
    }
  ],
  "bytecode": "0x608060405234801561001057600080fd5b50604051610b9c380380610b9c8339818101604052602081101561003357600080fd5b8101908080519060200190929190505050806000806101000a81548173ffffffffffffffffffffffffffffffffffffffff021916908373ffffffffffffffffffffffffffffffffffffffff16021790555050610b08806100946000396000f3fe6080604052600436106100745760003560e01c80634afe62b51161004e5780634afe62b51461014a5780636d88a0c61461019857806385970c66146101c5578063ac7a1c72146101f25761007b565b806312065fe01461007d57806314794702146100a85780633dbb8c4a146100f95761007b565b3661007b57005b005b34801561008957600080fd5b50610092610243565b6040518082815260200191505060405180910390f35b3480156100b457600080fd5b506100e1600480360360208110156100cb57600080fd5b810190808035906020019092919050505061024b565b60405180821515815260200191505060405180910390f35b34801561010557600080fd5b506101326004803603602081101561011c57600080fd5b81019080803590602001909291905050506103ba565b60405180821515815260200191505060405180910390f35b6101806004803603604081101561016057600080fd5b810190808035906020019092919080359060200190929190505050610529565b60405180821515815260200191505060405180910390f35b3480156101a457600080fd5b506101ad61069f565b60405180821515815260200191505060405180910390f35b3480156101d157600080fd5b506101da610801565b60405180821515815260200191505060405180910390f35b3480156101fe57600080fd5b5061022b6004803603602081101561021557600080fd5b8101908080359060200190929190505050610963565b60405180821515815260200191505060405180910390f35b600047905090565b60008060008054906101000a900473ffffffffffffffffffffffffffffffffffffffff1673ffffffffffffffffffffffffffffffffffffffff1683604051602401808281526020019150506040516020818303038152906040527fea525249000000000000000000000000000000000000000000000000000000007bffffffffffffffffffffffffffffffffffffffffffffffffffffffff19166020820180517bffffffffffffffffffffffffffffffffffffffffffffffffffffffff83818316178352505050506040518082805190602001908083835b602083106103465780518252602082019150602081019050602083039250610323565b6001836020036101000a0380198251168184511680821785525050505050509050019150506000604051808303816000865af19150503d80600081146103a8576040519150601f19603f3d011682016040523d82523d6000602084013e6103ad565b606091505b5050905080915050919050565b60008060008054906101000a900473ffffffffffffffffffffffffffffffffffffffff1673ffffffffffffffffffffffffffffffffffffffff1683604051602401808281526020019150506040516020818303038152906040527f4f6e79d0000000000000000000000000000000000000000000000000000000007bffffffffffffffffffffffffffffffffffffffffffffffffffffffff19166020820180517bffffffffffffffffffffffffffffffffffffffffffffffffffffffff83818316178352505050506040518082805190602001908083835b602083106104b55780518252602082019150602081019050602083039250610492565b6001836020036101000a0380198251168184511680821785525050505050509050019150506000604051808303816000865af19150503d8060008114610517576040519150601f19603f3d011682016040523d82523d6000602084013e61051c565b606091505b5050905080915050919050565b60008060008054906101000a900473ffffffffffffffffffffffffffffffffffffffff1673ffffffffffffffffffffffffffffffffffffffff16620f42408585604051602401808281526020019150506040516020818303038152906040527fc70caa25000000000000000000000000000000000000000000000000000000007bffffffffffffffffffffffffffffffffffffffffffffffffffffffff19166020820180517bffffffffffffffffffffffffffffffffffffffffffffffffffffffff83818316178352505050506040518082805190602001908083835b602083106106295780518252602082019150602081019050602083039250610606565b6001836020036101000a038019825116818451168082178552505050505050905001915050600060405180830381858888f193505050503d806000811461068c576040519150601f19603f3d011682016040523d82523d6000602084013e610691565b606091505b505090508091505092915050565b60008060008054906101000a900473ffffffffffffffffffffffffffffffffffffffff1673ffffffffffffffffffffffffffffffffffffffff166040516024016040516020818303038152906040527f6d88a0c6000000000000000000000000000000000000000000000000000000007bffffffffffffffffffffffffffffffffffffffffffffffffffffffff19166020820180517bffffffffffffffffffffffffffffffffffffffffffffffffffffffff83818316178352505050506040518082805190602001908083835b6020831061078f578051825260208201915060208101905060208303925061076c565b6001836020036101000a0380198251168184511680821785525050505050509050019150506000604051808303816000865af19150503d80600081146107f1576040519150601f19603f3d011682016040523d82523d6000602084013e6107f6565b606091505b505090508091505090565b60008060008054906101000a900473ffffffffffffffffffffffffffffffffffffffff1673ffffffffffffffffffffffffffffffffffffffff166040516024016040516020818303038152906040527f85970c66000000000000000000000000000000000000000000000000000000007bffffffffffffffffffffffffffffffffffffffffffffffffffffffff19166020820180517bffffffffffffffffffffffffffffffffffffffffffffffffffffffff83818316178352505050506040518082805190602001908083835b602083106108f157805182526020820191506020810190506020830392506108ce565b6001836020036101000a0380198251168184511680821785525050505050509050019150506000604051808303816000865af19150503d8060008114610953576040519150601f19603f3d011682016040523d82523d6000602084013e610958565b606091505b505090508091505090565b60008060008054906101000a900473ffffffffffffffffffffffffffffffffffffffff1673ffffffffffffffffffffffffffffffffffffffff1683604051602401808281526020019150506040516020818303038152906040527f43749025000000000000000000000000000000000000000000000000000000007bffffffffffffffffffffffffffffffffffffffffffffffffffffffff19166020820180517bffffffffffffffffffffffffffffffffffffffffffffffffffffffff83818316178352505050506040518082805190602001908083835b60208310610a5e5780518252602082019150602081019050602083039250610a3b565b6001836020036101000a0380198251168184511680821785525050505050509050019150506000604051808303816000865af19150503d8060008114610ac0576040519150601f19603f3d011682016040523d82523d6000602084013e610ac5565b606091505b505090508091505091905056fea2646970667358221220c5e0780b086a96ba656299761fb9af2b611f4ab937b50f3fa0d844358bbbb3aa64736f6c63430007030033",
  "immutableReferences": {},
  "source": "// SPDX-License-Identifier: MIT\npragma solidity ^0.7.3;\n\nimport \"../Predicty.sol\";\n\ncontract MockActor {\n\n    address predicty;\n\n    constructor(address _predicty) public {\n        predicty = _predicty;\n    }\n\n    function placeBet(uint _bet, uint _option) public payable returns(bool) {\n      (bool success, ) = address(predicty).call{gas: 1000000, value: _bet}(abi.encodeWithSignature(\"placeBet(Option)\", _option));\n      return success;\n    }\n\n    function settleMarket() public returns(bool) {\n      (bool success, ) = address(predicty).call(abi.encodeWithSignature(\"settleMarket()\"));\n      return success;\n    }\n\n    function createNewMarket() public returns(bool) {\n      (bool success, ) = address(predicty).call(abi.encodeWithSignature(\"createNewMarket()\"));\n      return success;\n    }\n\n    function withdrawWinnings(uint _marketId) public returns(bool) {\n      (bool success, ) = address(predicty).call(abi.encodeWithSignature(\"withdrawWinnings(uint)\", _marketId));\n      return success;\n    }\n\n    function withdrawCreationReward(uint _marketId) public returns(bool) {\n      (bool success, ) = address(predicty).call(abi.encodeWithSignature(\"withdrawCreationReward(uint)\", _marketId));\n      return success;\n    }\n\n    function withdrawSettlementReward(uint _marketId) public returns(bool) {\n      (bool success, ) = address(predicty).call(abi.encodeWithSignature(\"withdrawSettlementReward(uint)\", _marketId));\n      return success;\n    }\n\n    // function placeItemForSale(string memory _item, uint _price) public returns(bool) {\n    //     (bool success, ) = address(supplychain).call(abi.encodeWithSignature(\"addItem(string,uint256)\",_item,_price));\n    //     return success;\n    // }\n    //\n    // function purchaseItem(uint _sku, uint _offer) public payable returns(bool) {\n    //     (bool success, ) = address(supplychain).call{gas: 1000000, value: _offer}(abi.encodeWithSignature(\"buyItem(uint256)\",_sku));\n    //     return success;\n    // }\n    //\n    // function shipItem(uint _sku) public returns(bool) {\n    //     (bool success, ) = address(supplychain).call(abi.encodeWithSignature(\"shipItem(uint256)\",_sku));\n    //     return success;\n    // }\n    //\n    // function receiveItem(uint _sku) public returns(bool) {\n    //     (bool success, ) = address(supplychain).call(abi.encodeWithSignature(\"receiveItem(uint256)\",_sku));\n    //     return success;\n    // }\n\n    function getBalance() public view returns(uint) {\n        return address(this).balance;\n    }\n\n    fallback() external payable {}\n\n    receive() external payable {}\n\n}\n",
  "sourcePath": "/home/koen/iteration01/predicty/contracts/mock/MockActor.sol",
  "compiler": {
    "name": "solc",
    "version": "0.7.3+commit.9bfce1f6.Emscripten.clang"
  },
  "schemaVersion": "3.3.0",
  "updatedAt": "2020-11-22T14:15:12.484Z",
  "devdoc": {
    "kind": "dev",
    "methods": {},
    "version": 1
  },
  "userdoc": {
    "kind": "user",
    "methods": {},
    "version": 1
  }
}