{
  "contractName": "MockChainLinkOracle",
  "abi": [
    {
      "inputs": [],
      "stateMutability": "nonpayable",
      "type": "constructor"
    },
    {
      "inputs": [],
      "name": "currentRound",
      "outputs": [
        {
          "internalType": "uint80",
          "name": "",
          "type": "uint80"
        }
      ],
      "stateMutability": "view",
      "type": "function",
      "constant": true
    },
    {
      "inputs": [
        {
          "internalType": "uint80",
          "name": "",
          "type": "uint80"
        }
      ],
      "name": "roundData",
      "outputs": [
        {
          "internalType": "uint80",
          "name": "roundId",
          "type": "uint80"
        },
        {
          "internalType": "int256",
          "name": "answer",
          "type": "int256"
        },
        {
          "internalType": "uint256",
          "name": "startedAt",
          "type": "uint256"
        },
        {
          "internalType": "uint256",
          "name": "updatedAt",
          "type": "uint256"
        },
        {
          "internalType": "uint80",
          "name": "answeredInRound",
          "type": "uint80"
        }
      ],
      "stateMutability": "view",
      "type": "function",
      "constant": true
    },
    {
      "inputs": [],
      "name": "decimals",
      "outputs": [
        {
          "internalType": "uint8",
          "name": "",
          "type": "uint8"
        }
      ],
      "stateMutability": "pure",
      "type": "function",
      "constant": true
    },
    {
      "inputs": [],
      "name": "description",
      "outputs": [
        {
          "internalType": "string",
          "name": "",
          "type": "string"
        }
      ],
      "stateMutability": "pure",
      "type": "function",
      "constant": true
    },
    {
      "inputs": [],
      "name": "version",
      "outputs": [
        {
          "internalType": "uint256",
          "name": "",
          "type": "uint256"
        }
      ],
      "stateMutability": "pure",
      "type": "function",
      "constant": true
    },
    {
      "inputs": [],
      "name": "latestAnswer",
      "outputs": [
        {
          "internalType": "int256",
          "name": "",
          "type": "int256"
        }
      ],
      "stateMutability": "view",
      "type": "function",
      "constant": true
    },
    {
      "inputs": [
        {
          "internalType": "int256",
          "name": "_latestAnswer",
          "type": "int256"
        }
      ],
      "name": "setLatestAnswer",
      "outputs": [],
      "stateMutability": "nonpayable",
      "type": "function"
    },
    {
      "inputs": [
        {
          "internalType": "uint80",
          "name": "_roundId",
          "type": "uint80"
        }
      ],
      "name": "getRoundData",
      "outputs": [
        {
          "internalType": "uint80",
          "name": "roundId",
          "type": "uint80"
        },
        {
          "internalType": "int256",
          "name": "answer",
          "type": "int256"
        },
        {
          "internalType": "uint256",
          "name": "startedAt",
          "type": "uint256"
        },
        {
          "internalType": "uint256",
          "name": "updatedAt",
          "type": "uint256"
        },
        {
          "internalType": "uint80",
          "name": "answeredInRound",
          "type": "uint80"
        }
      ],
      "stateMutability": "view",
      "type": "function",
      "constant": true
    },
    {
      "inputs": [],
      "name": "latestRoundData",
      "outputs": [
        {
          "internalType": "uint80",
          "name": "roundId",
          "type": "uint80"
        },
        {
          "internalType": "int256",
          "name": "answer",
          "type": "int256"
        },
        {
          "internalType": "uint256",
          "name": "startedAt",
          "type": "uint256"
        },
        {
          "internalType": "uint256",
          "name": "updatedAt",
          "type": "uint256"
        },
        {
          "internalType": "uint80",
          "name": "answeredInRound",
          "type": "uint80"
        }
      ],
      "stateMutability": "view",
      "type": "function",
      "constant": true
    }
  ],
  "bytecode": "0x6080604052640b11e720406000554260015534801561001d57600080fd5b506000600360006101000a81548169ffffffffffffffffffff021916908369ffffffffffffffffffff1602179055506040518060a00160405280600069ffffffffffffffffffff168152602001600054815260200160015481526020016001548152602001600069ffffffffffffffffffff16815250600260008069ffffffffffffffffffff16815260200190815260200160002060008201518160000160006101000a81548169ffffffffffffffffffff021916908369ffffffffffffffffffff16021790555060208201518160010155604082015181600201556060820151816003015560808201518160040160006101000a81548169ffffffffffffffffffff021916908369ffffffffffffffffffff1602179055509050506108d5806101486000396000f3fe608060405234801561001057600080fd5b50600436106100935760003560e01c80637284e416116100665780637284e416146101235780638a19c8bc146101a65780639a6fc8f5146101d0578063bc81bae814610252578063feaf968c146102d457610093565b806304ea97b014610098578063313ce567146100c657806350d25bcd146100e757806354fd4d5014610105575b600080fd5b6100c4600480360360208110156100ae57600080fd5b8101908080359060200190929190505050610326565b005b6100ce6104aa565b604051808260ff16815260200191505060405180910390f35b6100ef6104b3565b6040518082815260200191505060405180910390f35b61010d610501565b6040518082815260200191505060405180910390f35b61012b61050a565b6040518080602001828103825283818151815260200191508051906020019080838360005b8381101561016b578082015181840152602081019050610150565b50505050905090810190601f1680156101985780820380516001836020036101000a031916815260200191505b509250505060405180910390f35b6101ae610547565b604051808269ffffffffffffffffffff16815260200191505060405180910390f35b610208600480360360208110156101e657600080fd5b81019080803569ffffffffffffffffffff169060200190929190505050610563565b604051808669ffffffffffffffffffff1681526020018581526020018481526020018381526020018269ffffffffffffffffffff1681526020019550505050505060405180910390f35b61028a6004803603602081101561026857600080fd5b81019080803569ffffffffffffffffffff169060200190929190505050610695565b604051808669ffffffffffffffffffff1681526020018581526020018481526020018381526020018269ffffffffffffffffffff1681526020019550505050505060405180910390f35b6102dc6106f7565b604051808669ffffffffffffffffffff1681526020018581526020018481526020018381526020018269ffffffffffffffffffff1681526020019550505050505060405180910390f35b6001600360009054906101000a900469ffffffffffffffffffff1601600360006101000a81548169ffffffffffffffffffff021916908369ffffffffffffffffffff1602179055506040518060a00160405280600360009054906101000a900469ffffffffffffffffffff1669ffffffffffffffffffff168152602001828152602001428152602001428152602001600360009054906101000a900469ffffffffffffffffffff1669ffffffffffffffffffff1681525060026000600360009054906101000a900469ffffffffffffffffffff1669ffffffffffffffffffff1669ffffffffffffffffffff16815260200190815260200160002060008201518160000160006101000a81548169ffffffffffffffffffff021916908369ffffffffffffffffffff16021790555060208201518160010155604082015181600201556060820151816003015560808201518160040160006101000a81548169ffffffffffffffffffff021916908369ffffffffffffffffffff16021790555090505050565b60006008905090565b600060026000600360009054906101000a900469ffffffffffffffffffff1669ffffffffffffffffffff1669ffffffffffffffffffff16815260200190815260200160002060010154905090565b60006001905090565b60606040518060400160405280600781526020017f4554482f55534400000000000000000000000000000000000000000000000000815250905090565b600360009054906101000a900469ffffffffffffffffffff1681565b6000806000806000600260008769ffffffffffffffffffff1669ffffffffffffffffffff16815260200190815260200160002060000160009054906101000a900469ffffffffffffffffffff16600260008869ffffffffffffffffffff1669ffffffffffffffffffff16815260200190815260200160002060010154600260008969ffffffffffffffffffff1669ffffffffffffffffffff16815260200190815260200160002060020154600260008a69ffffffffffffffffffff1669ffffffffffffffffffff16815260200190815260200160002060030154600260008b69ffffffffffffffffffff1669ffffffffffffffffffff16815260200190815260200160002060040160009054906101000a900469ffffffffffffffffffff169450945094509450945091939590929450565b60026020528060005260406000206000915090508060000160009054906101000a900469ffffffffffffffffffff16908060010154908060020154908060030154908060040160009054906101000a900469ffffffffffffffffffff16905085565b600080600080600060026000600360009054906101000a900469ffffffffffffffffffff1669ffffffffffffffffffff1669ffffffffffffffffffff16815260200190815260200160002060000160009054906101000a900469ffffffffffffffffffff1660026000600360009054906101000a900469ffffffffffffffffffff1669ffffffffffffffffffff1669ffffffffffffffffffff1681526020019081526020016000206001015460026000600360009054906101000a900469ffffffffffffffffffff1669ffffffffffffffffffff1669ffffffffffffffffffff1681526020019081526020016000206002015460026000600360009054906101000a900469ffffffffffffffffffff1669ffffffffffffffffffff1669ffffffffffffffffffff1681526020019081526020016000206003015460026000600360009054906101000a900469ffffffffffffffffffff1669ffffffffffffffffffff1669ffffffffffffffffffff16815260200190815260200160002060040160009054906101000a900469ffffffffffffffffffff1694509450945094509450909192939456fea264697066735822122083d535828ca9649d1f216bdff4f4de9427589243efe1b55fe96f534a01eb2a7f64736f6c63430007030033",
  "immutableReferences": {},
  "source": "// SPDX-License-Identifier: MIT\npragma solidity ^0.7.3;\n\nimport \"../interfaces/AggregatorV3Interface.sol\";\n\ncontract MockChainLinkOracle is AggregatorV3Interface {\n\n\t int256 latestAns = 47545000000;\n\t uint256 updatedInit = block.timestamp;\n\n   struct RoundData {\n      uint80 roundId;\n      int256 answer;\n      uint256 startedAt;\n      uint256 updatedAt;\n      uint80 answeredInRound;\n   }\n\n   mapping(uint80 => RoundData) public roundData;\n   uint80 public currentRound;\n\n   constructor() public {\n      currentRound = 0;\n      roundData[0] = RoundData(uint80(0),latestAns, updatedInit, updatedInit, uint80(0));\n   }\n\n  function decimals() override external pure returns (uint8) {\n    return uint8(8);\n  }\n\n  function description() override external pure returns (string memory) {\n    return \"ETH/USD\";\n  }\n\n  function version() override external pure returns (uint256) {\n    return uint256(1);\n  }\n\n\t/**\n  * @dev Gets the latest answer of chainLink oracle.\n  * @return int256 representing the latest answer of chainLink oracle.\n  */\n\t function latestAnswer() external view returns (int256) {\n     return roundData[currentRound].answer;\n\t }\n\n\t/**\n  * @dev Set the latest answer of chainLink oracle.\n  * @param _latestAnswer The latest anser of chainLink oracle.\n  */\n\t function setLatestAnswer(int256 _latestAnswer) public {\n     currentRound = currentRound + uint80(1);\n     roundData[currentRound] = RoundData(currentRound,_latestAnswer, block.timestamp, block.timestamp, currentRound);\n\t }\n\n\t function getRoundData(uint80 _roundId) override external view returns (\n      uint80 roundId,\n      int256 answer,\n      uint256 startedAt,\n      uint256 updatedAt,\n      uint80 answeredInRound\n    ) {\n    \treturn (roundData[_roundId].roundId, roundData[_roundId].answer, roundData[_roundId].startedAt,\n              roundData[_roundId].updatedAt,roundData[_roundId].answeredInRound);\n    }\n\n  \tfunction latestRoundData() override external view returns (\n      uint80 roundId,\n      int256 answer,\n      uint256 startedAt,\n      uint256 updatedAt,\n      uint80 answeredInRound\n    ) {\n    \treturn (roundData[currentRound].roundId, roundData[currentRound].answer, roundData[currentRound].startedAt,\n              roundData[currentRound].updatedAt,roundData[currentRound].answeredInRound);\n    }\n\n}\n",
  "sourcePath": "/home/koen/iteration01/predicty/contracts/mock/MockChainLinkOracle.sol",
  "compiler": {
    "name": "solc",
    "version": "0.7.3+commit.9bfce1f6.Emscripten.clang"
  },
  "schemaVersion": "3.3.0",
  "updatedAt": "2020-11-22T17:13:35.361Z",
  "networkType": "ethereum",
  "devdoc": {
    "kind": "dev",
    "methods": {
      "latestAnswer()": {
        "details": "Gets the latest answer of chainLink oracle.",
        "returns": {
          "_0": "int256 representing the latest answer of chainLink oracle."
        }
      },
      "setLatestAnswer(int256)": {
        "details": "Set the latest answer of chainLink oracle.",
        "params": {
          "_latestAnswer": "The latest anser of chainLink oracle."
        }
      }
    },
    "version": 1
  },
  "userdoc": {
    "kind": "user",
    "methods": {},
    "version": 1
  }
}