{
  "contractName": "Predicty",
  "abi": [
    {
      "inputs": [
        {
          "internalType": "address",
          "name": "_oracle",
          "type": "address"
        },
        {
          "internalType": "uint256",
          "name": "_duration",
          "type": "uint256"
        }
      ],
      "stateMutability": "nonpayable",
      "type": "constructor"
    },
    {
      "anonymous": false,
      "inputs": [
        {
          "indexed": true,
          "internalType": "uint256",
          "name": "marketId",
          "type": "uint256"
        },
        {
          "indexed": true,
          "internalType": "address",
          "name": "user",
          "type": "address"
        },
        {
          "indexed": false,
          "internalType": "enum Predicty.Option",
          "name": "option",
          "type": "uint8"
        },
        {
          "indexed": false,
          "internalType": "uint256",
          "name": "value",
          "type": "uint256"
        }
      ],
      "name": "LogBetPlaced",
      "type": "event"
    },
    {
      "anonymous": false,
      "inputs": [
        {
          "indexed": true,
          "internalType": "uint256",
          "name": "marketId",
          "type": "uint256"
        },
        {
          "indexed": true,
          "internalType": "address",
          "name": "user",
          "type": "address"
        },
        {
          "indexed": false,
          "internalType": "uint256",
          "name": "creationReward",
          "type": "uint256"
        }
      ],
      "name": "LogCreationRewardClaimed",
      "type": "event"
    },
    {
      "anonymous": false,
      "inputs": [
        {
          "indexed": true,
          "internalType": "uint256",
          "name": "marketId",
          "type": "uint256"
        },
        {
          "indexed": false,
          "internalType": "uint256",
          "name": "price",
          "type": "uint256"
        }
      ],
      "name": "LogNewMarketCreated",
      "type": "event"
    },
    {
      "anonymous": false,
      "inputs": [
        {
          "indexed": true,
          "internalType": "uint256",
          "name": "marketId",
          "type": "uint256"
        },
        {
          "indexed": true,
          "internalType": "address",
          "name": "oracle",
          "type": "address"
        },
        {
          "indexed": false,
          "internalType": "enum Predicty.Option",
          "name": "option",
          "type": "uint8"
        }
      ],
      "name": "LogResultPosted",
      "type": "event"
    },
    {
      "anonymous": false,
      "inputs": [
        {
          "indexed": true,
          "internalType": "uint256",
          "name": "marketId",
          "type": "uint256"
        },
        {
          "indexed": true,
          "internalType": "address",
          "name": "user",
          "type": "address"
        },
        {
          "indexed": false,
          "internalType": "uint256",
          "name": "settlementReward",
          "type": "uint256"
        }
      ],
      "name": "LogSettlementRewardClaimed",
      "type": "event"
    },
    {
      "anonymous": false,
      "inputs": [
        {
          "indexed": true,
          "internalType": "uint256",
          "name": "marketId",
          "type": "uint256"
        },
        {
          "indexed": true,
          "internalType": "address",
          "name": "user",
          "type": "address"
        },
        {
          "indexed": false,
          "internalType": "uint256",
          "name": "winnings",
          "type": "uint256"
        }
      ],
      "name": "LogWinningsClaimed",
      "type": "event"
    },
    {
      "stateMutability": "payable",
      "type": "fallback",
      "payable": true
    },
    {
      "inputs": [],
      "name": "commissionAmount",
      "outputs": [
        {
          "internalType": "uint256",
          "name": "",
          "type": "uint256"
        }
      ],
      "stateMutability": "view",
      "type": "function",
      "constant": true
    },
    {
      "inputs": [],
      "name": "marketCount",
      "outputs": [
        {
          "internalType": "uint256",
          "name": "",
          "type": "uint256"
        }
      ],
      "stateMutability": "view",
      "type": "function",
      "constant": true
    },
    {
      "inputs": [],
      "name": "marketCreationPaused",
      "outputs": [
        {
          "internalType": "bool",
          "name": "",
          "type": "bool"
        }
      ],
      "stateMutability": "view",
      "type": "function",
      "constant": true
    },
    {
      "inputs": [],
      "name": "marketDuration",
      "outputs": [
        {
          "internalType": "uint256",
          "name": "",
          "type": "uint256"
        }
      ],
      "stateMutability": "view",
      "type": "function",
      "constant": true
    },
    {
      "inputs": [
        {
          "internalType": "uint256",
          "name": "",
          "type": "uint256"
        }
      ],
      "name": "markets",
      "outputs": [
        {
          "internalType": "enum Predicty.MarketStatus",
          "name": "state",
          "type": "uint8"
        },
        {
          "internalType": "uint256",
          "name": "startTime",
          "type": "uint256"
        },
        {
          "internalType": "uint256",
          "name": "expireTime",
          "type": "uint256"
        },
        {
          "internalType": "uint256",
          "name": "neutralMinValue",
          "type": "uint256"
        },
        {
          "internalType": "uint256",
          "name": "neutralMaxValue",
          "type": "uint256"
        },
        {
          "internalType": "enum Predicty.Option",
          "name": "winningOption",
          "type": "uint8"
        },
        {
          "internalType": "uint256",
          "name": "settleTime",
          "type": "uint256"
        },
        {
          "internalType": "uint256",
          "name": "totalPool",
          "type": "uint256"
        }
      ],
      "stateMutability": "view",
      "type": "function",
      "constant": true
    },
    {
      "inputs": [],
      "name": "oracle",
      "outputs": [
        {
          "internalType": "address",
          "name": "",
          "type": "address"
        }
      ],
      "stateMutability": "view",
      "type": "function",
      "constant": true
    },
    {
      "inputs": [],
      "name": "owner",
      "outputs": [
        {
          "internalType": "address payable",
          "name": "",
          "type": "address"
        }
      ],
      "stateMutability": "view",
      "type": "function",
      "constant": true
    },
    {
      "stateMutability": "payable",
      "type": "receive",
      "payable": true
    },
    {
      "inputs": [
        {
          "internalType": "enum Predicty.Option",
          "name": "_option",
          "type": "uint8"
        }
      ],
      "name": "placeBet",
      "outputs": [],
      "stateMutability": "payable",
      "type": "function",
      "payable": true
    },
    {
      "inputs": [],
      "name": "settleMarket",
      "outputs": [],
      "stateMutability": "nonpayable",
      "type": "function"
    },
    {
      "inputs": [],
      "name": "createNewMarket",
      "outputs": [
        {
          "internalType": "bool",
          "name": "success",
          "type": "bool"
        }
      ],
      "stateMutability": "nonpayable",
      "type": "function"
    },
    {
      "inputs": [
        {
          "internalType": "uint256",
          "name": "_marketId",
          "type": "uint256"
        },
        {
          "internalType": "address",
          "name": "_user",
          "type": "address"
        }
      ],
      "name": "calculateWinnings",
      "outputs": [
        {
          "internalType": "uint256",
          "name": "winnings",
          "type": "uint256"
        }
      ],
      "stateMutability": "view",
      "type": "function",
      "constant": true
    },
    {
      "inputs": [
        {
          "internalType": "uint256",
          "name": "_marketId",
          "type": "uint256"
        }
      ],
      "name": "withdrawWinnings",
      "outputs": [],
      "stateMutability": "nonpayable",
      "type": "function"
    },
    {
      "inputs": [
        {
          "internalType": "uint256",
          "name": "_marketId",
          "type": "uint256"
        }
      ],
      "name": "withdrawCreationReward",
      "outputs": [],
      "stateMutability": "nonpayable",
      "type": "function"
    },
    {
      "inputs": [
        {
          "internalType": "uint256",
          "name": "_marketId",
          "type": "uint256"
        }
      ],
      "name": "withdrawSettlementReward",
      "outputs": [],
      "stateMutability": "nonpayable",
      "type": "function"
    },
    {
      "inputs": [],
      "name": "getLatestPrice",
      "outputs": [
        {
          "internalType": "uint256",
          "name": "latestPrice",
          "type": "uint256"
        }
      ],
      "stateMutability": "view",
      "type": "function",
      "constant": true
    },
    {
      "inputs": [
        {
          "internalType": "uint256",
          "name": "_settleTime",
          "type": "uint256"
        }
      ],
      "name": "getSettlementPrice",
      "outputs": [
        {
          "internalType": "uint256",
          "name": "settlementPrice",
          "type": "uint256"
        },
        {
          "internalType": "uint256",
          "name": "roundId",
          "type": "uint256"
        }
      ],
      "stateMutability": "view",
      "type": "function",
      "constant": true
    },
    {
      "inputs": [
        {
          "internalType": "uint256",
          "name": "_marketId",
          "type": "uint256"
        }
      ],
      "name": "getMarketStatus",
      "outputs": [
        {
          "internalType": "enum Predicty.MarketStatus",
          "name": "status",
          "type": "uint8"
        }
      ],
      "stateMutability": "view",
      "type": "function",
      "constant": true
    },
    {
      "inputs": [
        {
          "internalType": "uint256",
          "name": "_marketId",
          "type": "uint256"
        }
      ],
      "name": "getMarketStartTime",
      "outputs": [
        {
          "internalType": "uint256",
          "name": "startTime",
          "type": "uint256"
        }
      ],
      "stateMutability": "view",
      "type": "function",
      "constant": true
    },
    {
      "inputs": [
        {
          "internalType": "uint256",
          "name": "_marketId",
          "type": "uint256"
        }
      ],
      "name": "getMarketExpireTime",
      "outputs": [
        {
          "internalType": "uint256",
          "name": "expireTime",
          "type": "uint256"
        }
      ],
      "stateMutability": "view",
      "type": "function",
      "constant": true
    },
    {
      "inputs": [
        {
          "internalType": "uint256",
          "name": "_marketId",
          "type": "uint256"
        }
      ],
      "name": "getMarketSettleTime",
      "outputs": [
        {
          "internalType": "uint256",
          "name": "settleTime",
          "type": "uint256"
        }
      ],
      "stateMutability": "view",
      "type": "function",
      "constant": true
    },
    {
      "inputs": [
        {
          "internalType": "uint256",
          "name": "_marketId",
          "type": "uint256"
        }
      ],
      "name": "getNeutralMinValue",
      "outputs": [
        {
          "internalType": "uint256",
          "name": "minValue",
          "type": "uint256"
        }
      ],
      "stateMutability": "view",
      "type": "function",
      "constant": true
    },
    {
      "inputs": [
        {
          "internalType": "uint256",
          "name": "_marketId",
          "type": "uint256"
        }
      ],
      "name": "getNeutralMaxValue",
      "outputs": [
        {
          "internalType": "uint256",
          "name": "maxValue",
          "type": "uint256"
        }
      ],
      "stateMutability": "view",
      "type": "function",
      "constant": true
    },
    {
      "inputs": [
        {
          "internalType": "uint256",
          "name": "_marketId",
          "type": "uint256"
        }
      ],
      "name": "getWinningOption",
      "outputs": [
        {
          "internalType": "enum Predicty.Option",
          "name": "winner",
          "type": "uint8"
        }
      ],
      "stateMutability": "view",
      "type": "function",
      "constant": true
    },
    {
      "inputs": [
        {
          "internalType": "uint256",
          "name": "_marketId",
          "type": "uint256"
        }
      ],
      "name": "getMarketTotalPool",
      "outputs": [
        {
          "internalType": "uint256",
          "name": "totalPool",
          "type": "uint256"
        }
      ],
      "stateMutability": "view",
      "type": "function",
      "constant": true
    },
    {
      "inputs": [
        {
          "internalType": "uint256",
          "name": "_marketId",
          "type": "uint256"
        },
        {
          "internalType": "enum Predicty.Option",
          "name": "_option",
          "type": "uint8"
        }
      ],
      "name": "getMarketTotalBets",
      "outputs": [
        {
          "internalType": "uint256",
          "name": "totalBets",
          "type": "uint256"
        }
      ],
      "stateMutability": "view",
      "type": "function",
      "constant": true
    },
    {
      "inputs": [
        {
          "internalType": "uint256",
          "name": "_marketId",
          "type": "uint256"
        },
        {
          "internalType": "address",
          "name": "_user",
          "type": "address"
        }
      ],
      "name": "getUserClaimedWinnings",
      "outputs": [
        {
          "internalType": "bool",
          "name": "claimed",
          "type": "bool"
        }
      ],
      "stateMutability": "view",
      "type": "function",
      "constant": true
    },
    {
      "inputs": [
        {
          "internalType": "uint256",
          "name": "_marketId",
          "type": "uint256"
        },
        {
          "internalType": "address",
          "name": "_user",
          "type": "address"
        },
        {
          "internalType": "enum Predicty.Option",
          "name": "_option",
          "type": "uint8"
        }
      ],
      "name": "getUserAmountStaked",
      "outputs": [
        {
          "internalType": "uint256",
          "name": "amountStaked",
          "type": "uint256"
        }
      ],
      "stateMutability": "view",
      "type": "function",
      "constant": true
    },
    {
      "inputs": [
        {
          "internalType": "uint256",
          "name": "_marketId",
          "type": "uint256"
        },
        {
          "internalType": "address",
          "name": "_user",
          "type": "address"
        }
      ],
      "name": "getUserClaimedCreationReward",
      "outputs": [
        {
          "internalType": "bool",
          "name": "claimed",
          "type": "bool"
        }
      ],
      "stateMutability": "view",
      "type": "function",
      "constant": true
    },
    {
      "inputs": [
        {
          "internalType": "uint256",
          "name": "_marketId",
          "type": "uint256"
        },
        {
          "internalType": "address",
          "name": "_user",
          "type": "address"
        }
      ],
      "name": "getUserCreationReward",
      "outputs": [
        {
          "internalType": "uint256",
          "name": "reward",
          "type": "uint256"
        }
      ],
      "stateMutability": "view",
      "type": "function",
      "constant": true
    },
    {
      "inputs": [
        {
          "internalType": "uint256",
          "name": "_marketId",
          "type": "uint256"
        },
        {
          "internalType": "address",
          "name": "_user",
          "type": "address"
        }
      ],
      "name": "getUserClaimedSettlementReward",
      "outputs": [
        {
          "internalType": "bool",
          "name": "claimed",
          "type": "bool"
        }
      ],
      "stateMutability": "view",
      "type": "function",
      "constant": true
    },
    {
      "inputs": [
        {
          "internalType": "uint256",
          "name": "_marketId",
          "type": "uint256"
        },
        {
          "internalType": "address",
          "name": "_user",
          "type": "address"
        }
      ],
      "name": "getUserSettlementReward",
      "outputs": [
        {
          "internalType": "uint256",
          "name": "reward",
          "type": "uint256"
        }
      ],
      "stateMutability": "view",
      "type": "function",
      "constant": true
    },
    {
      "inputs": [],
      "name": "getContractBalance",
      "outputs": [
        {
          "internalType": "uint256",
          "name": "balance",
          "type": "uint256"
        }
      ],
      "stateMutability": "view",
      "type": "function",
      "constant": true
    },
    {
      "inputs": [
        {
          "internalType": "address",
          "name": "_oracle",
          "type": "address"
        }
      ],
      "name": "updateOracleAddress",
      "outputs": [],
      "stateMutability": "nonpayable",
      "type": "function"
    },
    {
      "inputs": [],
      "name": "pauseMarketCreation",
      "outputs": [],
      "stateMutability": "nonpayable",
      "type": "function"
    },
    {
      "inputs": [],
      "name": "resumeMarketCreation",
      "outputs": [],
      "stateMutability": "nonpayable",
      "type": "function"
    },
    {
      "inputs": [],
      "name": "destroy",
      "outputs": [],
      "stateMutability": "nonpayable",
      "type": "function"
    }
  ],
  "bytecode": "0x60806040523480156200001157600080fd5b5060405162003c8738038062003c87833981810160405260408110156200003757600080fd5b81019080805190602001909291908051906020019092919050505081600160006101000a81548173ffffffffffffffffffffffffffffffffffffffff021916908373ffffffffffffffffffffffffffffffffffffffff160217905550600160009054906101000a900473ffffffffffffffffffffffffffffffffffffffff16600260006101000a81548173ffffffffffffffffffffffffffffffffffffffff021916908373ffffffffffffffffffffffffffffffffffffffff160217905550336000806101000a81548173ffffffffffffffffffffffffffffffffffffffff021916908373ffffffffffffffffffffffffffffffffffffffff160217905550806005819055506000600481905550600062000157620002f460201b60201c565b90506000600660006004548152602001908152602001600020905060008160000160006101000a81548160ff021916908360028111156200019457fe5b0217905550620001d0610e10620001bc610e10426200045760201b62002d941790919060201c565b620004a960201b62002dde1790919060201c565b8160010181905550620001f860055482600101546200053460201b62002e641790919060201c565b81600201819055506200022f6200021a602884612710620005bd60201b60201c565b83620005fb60201b62002eec1790919060201c565b81600301819055506200026662000251602884612710620005bd60201b60201c565b836200053460201b62002e641790919060201c565b8160040181905550620002a86200028f6002600554620004a960201b62002dde1790919060201c565b82600101546200053460201b62002e641790919060201c565b81600601819055506004547f1f7e7d50482275e1a28eb29fa3a6e4169982cdca7f5dc741edf931f1ca6e95c0836040518082815260200191505060405180910390a250505050620007dc565b600080600080600080600260009054906101000a900473ffffffffffffffffffffffffffffffffffffffff1673ffffffffffffffffffffffffffffffffffffffff1663feaf968c6040518163ffffffff1660e01b815260040160a06040518083038186803b1580156200036657600080fd5b505afa1580156200037b573d6000803e3d6000fd5b505050506040513d60a08110156200039257600080fd5b81019080805190602001909291908051906020019092919080519060200190929190805190602001909291908051906020019092919050505094509450945094509450600082116200044c576040517f08c379a00000000000000000000000000000000000000000000000000000000081526004018080602001828103825260128152602001807f526f756e64206e6f7420636f6d706c657465000000000000000000000000000081525060200191505060405180910390fd5b839550505050505090565b6000620004a183836040518060400160405280601a81526020017f536166654d6174683a206469766973696f6e206279207a65726f0000000000008152506200064d60201b60201c565b905092915050565b600080831415620004be57600090506200052e565b6000828402905082848281620004d057fe5b041462000529576040517f08c379a000000000000000000000000000000000000000000000000000000000815260040180806020018281038252602181526020018062003c666021913960400191505060405180910390fd5b809150505b92915050565b600080828401905083811015620005b3576040517f08c379a000000000000000000000000000000000000000000000000000000000815260040180806020018281038252601b8152602001807f536166654d6174683a206164646974696f6e206f766572666c6f77000000000081525060200191505060405180910390fd5b8091505092915050565b6000620005f282620005de8587620004a960201b62002dde1790919060201c565b6200045760201b62002d941790919060201c565b90509392505050565b60006200064583836040518060400160405280601e81526020017f536166654d6174683a207375627472616374696f6e206f766572666c6f7700008152506200071860201b60201c565b905092915050565b60008083118290620006fd576040517f08c379a00000000000000000000000000000000000000000000000000000000081526004018080602001828103825283818151815260200191508051906020019080838360005b83811015620006c1578082015181840152602081019050620006a4565b50505050905090810190601f168015620006ef5780820380516001836020036101000a031916815260200191505b509250505060405180910390fd5b5060008385816200070a57fe5b049050809150509392505050565b6000838311158290620007c9576040517f08c379a00000000000000000000000000000000000000000000000000000000081526004018080602001828103825283818151815260200191508051906020019080838360005b838110156200078d57808201518184015260208101905062000770565b50505050905090810190601f168015620007bb5780820380516001836020036101000a031916815260200191505b509250505060405180910390fd5b5060008385039050809150509392505050565b61347a80620007ec6000396000f3fe6080604052600436106102135760003560e01c80638e15f47311610118578063d009cc4e116100a0578063ec5a711a1161006f578063ec5a711a14610b5a578063ec97908214610bb4578063f15cc40614610bdf578063f7023bb614610c4e578063f8cc054714610c9f57610269565b8063d009cc4e14610a19578063d469fc2714610a68578063db877e5314610a93578063ec1619e114610b0457610269565b8063b0412cb0116100e7578063b0412cb01461083d578063b0a2f35614610854578063b1283e77146108a3578063b2da099014610939578063c6806211146109aa57610269565b80638e15f473146107215780639387c3dd1461074c578063a6286870146107a8578063ac7a1c721461080257610269565b8063568120e01161019b5780637dc0d1d01161016a5780637dc0d1d01461062257806383197ef01461066357806385970c661461067a578063860f5a72146106915780638da5cb5b146106e057610269565b8063568120e0146105305780636d88a0c61461059f5780636f9fb98a146105cc5780637a6e0880146105f757610269565b806335f628ee116101e257806335f628ee146103d75780633d4c4955146104045780633dbb8c4a14610453578063430468441461048e57806348b13af5146104bf57610269565b80630863812f146102ba57806314794702146102d15780631e490aed1461030c5780633511f7911461038857610269565b36610269576040517f08c379a00000000000000000000000000000000000000000000000000000000081526004018080602001828103825260678152602001806132cf6067913960800191505060405180910390fd5b6040517f08c379a00000000000000000000000000000000000000000000000000000000081526004018080602001828103825260678152602001806132cf6067913960800191505060405180910390fd5b3480156102c657600080fd5b506102cf610cee565b005b3480156102dd57600080fd5b5061030a600480360360208110156102f457600080fd5b8101908080359060200190929190505050610dc9565b005b34801561031857600080fd5b506103726004803603606081101561032f57600080fd5b8101908080359060200190929190803573ffffffffffffffffffffffffffffffffffffffff169060200190929190803560ff1690602001909291905050506110e7565b6040518082815260200191505060405180910390f35b34801561039457600080fd5b506103c1600480360360208110156103ab57600080fd5b8101908080359060200190929190505050611175565b6040518082815260200191505060405180910390f35b3480156103e357600080fd5b506103ec61119a565b60405180821515815260200191505060405180910390f35b34801561041057600080fd5b5061043d6004803603602081101561042757600080fd5b81019080803590602001909291905050506111ad565b6040518082815260200191505060405180910390f35b34801561045f57600080fd5b5061048c6004803603602081101561047657600080fd5b81019080803590602001909291905050506111d2565b005b6104bd600480360360208110156104a457600080fd5b81019080803560ff16906020019092919050505061152b565b005b3480156104cb57600080fd5b50610518600480360360408110156104e257600080fd5b8101908080359060200190929190803573ffffffffffffffffffffffffffffffffffffffff169060200190929190505050611842565b60405180821515815260200191505060405180910390f35b34801561053c57600080fd5b506105896004803603604081101561055357600080fd5b8101908080359060200190929190803573ffffffffffffffffffffffffffffffffffffffff1690602001909291905050506118b5565b6040518082815260200191505060405180910390f35b3480156105ab57600080fd5b506105b461191b565b60405180821515815260200191505060405180910390f35b3480156105d857600080fd5b506105e1611c4b565b6040518082815260200191505060405180910390f35b34801561060357600080fd5b5061060c611c53565b6040518082815260200191505060405180910390f35b34801561062e57600080fd5b50610637611c59565b604051808273ffffffffffffffffffffffffffffffffffffffff16815260200191505060405180910390f35b34801561066f57600080fd5b50610678611c7f565b005b34801561068657600080fd5b5061068f611d5c565b005b34801561069d57600080fd5b506106ca600480360360208110156106b457600080fd5b810190808035906020019092919050505061205d565b6040518082815260200191505060405180910390f35b3480156106ec57600080fd5b506106f5612082565b604051808273ffffffffffffffffffffffffffffffffffffffff16815260200191505060405180910390f35b34801561072d57600080fd5b506107366120a6565b6040518082815260200191505060405180910390f35b34801561075857600080fd5b506107926004803603604081101561076f57600080fd5b8101908080359060200190929190803560ff169060200190929190505050612205565b6040518082815260200191505060405180910390f35b3480156107b457600080fd5b506107e1600480360360208110156107cb57600080fd5b8101908080359060200190929190505050612252565b604051808260028111156107f157fe5b815260200191505060405180910390f35b34801561080e57600080fd5b5061083b6004803603602081101561082557600080fd5b8101908080359060200190929190505050612284565b005b34801561084957600080fd5b506108526125dd565b005b34801561086057600080fd5b5061088d6004803603602081101561087757600080fd5b81019080803590602001909291905050506126b7565b6040518082815260200191505060405180910390f35b3480156108af57600080fd5b506108dc600480360360208110156108c657600080fd5b81019080803590602001909291905050506126dc565b604051808960028111156108ec57fe5b815260200188815260200187815260200186815260200185815260200184600281111561091557fe5b81526020018381526020018281526020019850505050505050505060405180910390f35b34801561094557600080fd5b506109926004803603604081101561095c57600080fd5b8101908080359060200190929190803573ffffffffffffffffffffffffffffffffffffffff16906020019092919050505061273e565b60405180821515815260200191505060405180910390f35b3480156109b657600080fd5b50610a03600480360360408110156109cd57600080fd5b8101908080359060200190929190803573ffffffffffffffffffffffffffffffffffffffff1690602001909291905050506127b1565b6040518082815260200191505060405180910390f35b348015610a2557600080fd5b50610a5260048036036020811015610a3c57600080fd5b8101908080359060200190929190505050612817565b6040518082815260200191505060405180910390f35b348015610a7457600080fd5b50610a7d61283c565b6040518082815260200191505060405180910390f35b348015610a9f57600080fd5b50610aec60048036036040811015610ab657600080fd5b8101908080359060200190929190803573ffffffffffffffffffffffffffffffffffffffff169060200190929190505050612842565b60405180821515815260200191505060405180910390f35b348015610b1057600080fd5b50610b3d60048036036020811015610b2757600080fd5b81019080803590602001909291905050506128b5565b604051808381526020018281526020019250505060405180910390f35b348015610b6657600080fd5b50610b9360048036036020811015610b7d57600080fd5b8101908080359060200190929190505050612aca565b60405180826002811115610ba357fe5b815260200191505060405180910390f35b348015610bc057600080fd5b50610bc9612b46565b6040518082815260200191505060405180910390f35b348015610beb57600080fd5b50610c3860048036036040811015610c0257600080fd5b8101908080359060200190929190803573ffffffffffffffffffffffffffffffffffffffff169060200190929190505050612b4c565b6040518082815260200191505060405180910390f35b348015610c5a57600080fd5b50610c9d60048036036020811015610c7157600080fd5b81019080803573ffffffffffffffffffffffffffffffffffffffff169060200190929190505050612c87565b005b348015610cab57600080fd5b50610cd860048036036020811015610cc257600080fd5b8101908080359060200190929190505050612d6f565b6040518082815260200191505060405180910390f35b60008054906101000a900473ffffffffffffffffffffffffffffffffffffffff1673ffffffffffffffffffffffffffffffffffffffff163373ffffffffffffffffffffffffffffffffffffffff1614610d92576040517f08c379a000000000000000000000000000000000000000000000000000000000815260040180806020018281038252603581526020018061335c6035913960400191505060405180910390fd5b600260149054906101000a900460ff1615610dac57600080fd5b6001600260146101000a81548160ff021916908315150217905550565b80600280811115610dd657fe5b610ddf82612aca565b6002811115610dea57fe5b14610e40576040517f08c379a00000000000000000000000000000000000000000000000000000000081526004018080602001828103825260468152602001806131be6046913960600191505060405180910390fd5b6000600660008481526020019081526020016000209050600015158160070160003373ffffffffffffffffffffffffffffffffffffffff1673ffffffffffffffffffffffffffffffffffffffff16815260200190815260200160002060000160009054906101000a900460ff16151514610f05576040517f08c379a000000000000000000000000000000000000000000000000000000000815260040180806020018281038252603c8152602001806130ed603c913960400191505060405180910390fd5b60008160070160003373ffffffffffffffffffffffffffffffffffffffff1673ffffffffffffffffffffffffffffffffffffffff16815260200190815260200160002060010160008360050160009054906101000a900460ff166002811115610f6a57fe5b6002811115610f7557fe5b815260200190815260200160002054905060008111610fdf576040517f08c379a00000000000000000000000000000000000000000000000000000000081526004018080602001828103825260318152602001806132476031913960400191505060405180910390fd5b6000610feb8533612b4c565b905060018360070160003373ffffffffffffffffffffffffffffffffffffffff1673ffffffffffffffffffffffffffffffffffffffff16815260200190815260200160002060000160006101000a81548160ff0219169083151502179055503373ffffffffffffffffffffffffffffffffffffffff166108fc829081150290604051600060405180830381858888f19350505050158015611090573d6000803e3d6000fd5b503373ffffffffffffffffffffffffffffffffffffffff16857f105cc7d35fad5e2c0f1b64230db0184b4cd3bae41ca74e601464519b9c113628836040518082815260200191505060405180910390a35050505050565b6000806006600086815260200190815260200160002090508060070160008573ffffffffffffffffffffffffffffffffffffffff1673ffffffffffffffffffffffffffffffffffffffff168152602001908152602001600020600101600084600281111561115157fe5b600281111561115c57fe5b8152602001908152602001600020549150509392505050565b6000806006600084815260200190815260200160002090508060060154915050919050565b600260149054906101000a900460ff1681565b6000806006600084815260200190815260200160002090508060090154915050919050565b806002808111156111df57fe5b6111e882612aca565b60028111156111f357fe5b14611249576040517f08c379a00000000000000000000000000000000000000000000000000000000081526004018080602001828103825260468152602001806131be6046913960600191505060405180910390fd5b600060066000848152602001908152602001600020905060008160070160003373ffffffffffffffffffffffffffffffffffffffff1673ffffffffffffffffffffffffffffffffffffffff16815260200190815260200160002060030154116112fd576040517f08c379a00000000000000000000000000000000000000000000000000000000081526004018080602001828103825260268152602001806133366026913960400191505060405180910390fd5b600015158160070160003373ffffffffffffffffffffffffffffffffffffffff1673ffffffffffffffffffffffffffffffffffffffff16815260200190815260200160002060020160009054906101000a900460ff161515146113ab576040517f08c379a00000000000000000000000000000000000000000000000000000000081526004018080602001828103825260438152602001806132046043913960600191505060405180910390fd5b60018160070160003373ffffffffffffffffffffffffffffffffffffffff1673ffffffffffffffffffffffffffffffffffffffff16815260200190815260200160002060020160006101000a81548160ff0219169083151502179055503373ffffffffffffffffffffffffffffffffffffffff166108fc8260070160003373ffffffffffffffffffffffffffffffffffffffff1673ffffffffffffffffffffffffffffffffffffffff168152602001908152602001600020600301549081150290604051600060405180830381858888f19350505050158015611492573d6000803e3d6000fd5b503373ffffffffffffffffffffffffffffffffffffffff16837f1cf9fefa07e1b47d12471ea505b9d27a368594911abf000d5c012d21a851224d8360070160003373ffffffffffffffffffffffffffffffffffffffff1673ffffffffffffffffffffffffffffffffffffffff168152602001908152602001600020600301546040518082815260200191505060405180910390a3505050565b6004546000600281111561153b57fe5b61154482612aca565b600281111561154f57fe5b146115a5576040517f08c379a000000000000000000000000000000000000000000000000000000000815260040180806020018281038252604081526020018061317e6040913960400191505060405180910390fd5b6000600660006004548152602001908152602001600020905060003411611617576040517f08c379a00000000000000000000000000000000000000000000000000000000081526004018080602001828103825260298152602001806131556029913960400191505060405180910390fd5b6000349050600061162c600a836103e8612f36565b905061164381600354612e6490919063ffffffff16565b60038190555061165c8183612eec90919063ffffffff16565b915061169c8284600801600088600281111561167457fe5b600281111561167f57fe5b815260200190815260200160002054612e6490919063ffffffff16565b8360080160008760028111156116ae57fe5b60028111156116b957fe5b815260200190815260200160002081905550611749828460070160003373ffffffffffffffffffffffffffffffffffffffff1673ffffffffffffffffffffffffffffffffffffffff168152602001908152602001600020600101600088600281111561172157fe5b600281111561172c57fe5b815260200190815260200160002054612e6490919063ffffffff16565b8360070160003373ffffffffffffffffffffffffffffffffffffffff1673ffffffffffffffffffffffffffffffffffffffff168152602001908152602001600020600101600087600281111561179b57fe5b60028111156117a657fe5b8152602001908152602001600020819055506117cf828460090154612e6490919063ffffffff16565b83600901819055503373ffffffffffffffffffffffffffffffffffffffff166004547fb17d009909673c265c924cf0c53bf0e5f640ce02c3d44ae42b776516d6076a9787856040518083600281111561182457fe5b81526020018281526020019250505060405180910390a35050505050565b6000806006600085815260200190815260200160002090508060070160008473ffffffffffffffffffffffffffffffffffffffff1673ffffffffffffffffffffffffffffffffffffffff16815260200190815260200160002060040160009054906101000a900460ff1691505092915050565b6000806006600085815260200190815260200160002090508060070160008473ffffffffffffffffffffffffffffffffffffffff1673ffffffffffffffffffffffffffffffffffffffff1681526020019081526020016000206003015491505092915050565b600060045460028081111561192c57fe5b61193582612aca565b600281111561194057fe5b14611996576040517f08c379a00000000000000000000000000000000000000000000000000000000081526004018080602001828103825260468152602001806131be6046913960600191505060405180910390fd5b600260149054906101000a900460ff16156119fc576040517f08c379a000000000000000000000000000000000000000000000000000000000815260040180806020018281038252602c815260200180613129602c913960400191505060405180910390fd5b611a126001600454612e6490919063ffffffff16565b6004819055506000611a226120a6565b90506000600660006004548152602001908152602001600020905060008160000160006101000a81548160ff02191690836002811115611a5e57fe5b0217905550611a8c610e10611a7e610e1042612d9490919063ffffffff16565b612dde90919063ffffffff16565b8160010181905550611aad6005548260010154612e6490919063ffffffff16565b8160020181905550611ad5611ac6602884612710612f36565b83612eec90919063ffffffff16565b8160030181905550611afd611aee602884612710612f36565b83612e6490919063ffffffff16565b8160040181905550611b31611b1e6002600554612dde90919063ffffffff16565b8260010154612e6490919063ffffffff16565b81600601819055506000611b4a600a6003546064612f36565b9050611ba3818360070160003373ffffffffffffffffffffffffffffffffffffffff1673ffffffffffffffffffffffffffffffffffffffff16815260200190815260200160002060030154612e6490919063ffffffff16565b8260070160003373ffffffffffffffffffffffffffffffffffffffff1673ffffffffffffffffffffffffffffffffffffffff16815260200190815260200160002060030181905550611c0081600354612eec90919063ffffffff16565b6003819055506004547f1f7e7d50482275e1a28eb29fa3a6e4169982cdca7f5dc741edf931f1ca6e95c0846040518082815260200191505060405180910390a2600194505050505090565b600047905090565b60035481565b600160009054906101000a900473ffffffffffffffffffffffffffffffffffffffff1681565b60008054906101000a900473ffffffffffffffffffffffffffffffffffffffff1673ffffffffffffffffffffffffffffffffffffffff163373ffffffffffffffffffffffffffffffffffffffff1614611d23576040517f08c379a000000000000000000000000000000000000000000000000000000000815260040180806020018281038252603581526020018061335c6035913960400191505060405180910390fd5b60008054906101000a900473ffffffffffffffffffffffffffffffffffffffff1673ffffffffffffffffffffffffffffffffffffffff16ff5b60045460016002811115611d6c57fe5b611d7582612aca565b6002811115611d8057fe5b14611dd6576040517f08c379a00000000000000000000000000000000000000000000000000000000081526004018080602001828103825260498152602001806133fc6049913960600191505060405180910390fd5b611ddf81611175565b4211611e36576040517f08c379a00000000000000000000000000000000000000000000000000000000081526004018080602001828103825260368152602001806132996036913960400191505060405180910390fd5b600060066000600454815260200190815260200160002090506000611e5e82600601546128b5565b5090508160030154811015611e985760028260050160006101000a81548160ff02191690836002811115611e8e57fe5b0217905550611ef7565b8160040154811115611ecf5760008260050160006101000a81548160ff02191690836002811115611ec557fe5b0217905550611ef6565b60018260050160006101000a81548160ff02191690836002811115611ef057fe5b02179055505b5b6000611f08600a6003546064612f36565b9050611f61818460070160003373ffffffffffffffffffffffffffffffffffffffff1673ffffffffffffffffffffffffffffffffffffffff16815260200190815260200160002060050154612e6490919063ffffffff16565b8360070160003373ffffffffffffffffffffffffffffffffffffffff1673ffffffffffffffffffffffffffffffffffffffff16815260200190815260200160002060050181905550611fbe81600354612eec90919063ffffffff16565b6003819055503373ffffffffffffffffffffffffffffffffffffffff166004547f1c3b94e637507ff1620c7e117328829563411480d897f14d2238e805da77876d8560050160009054906101000a900460ff166040518082600281111561202157fe5b815260200191505060405180910390a360028360000160006101000a81548160ff0219169083600281111561205257fe5b021790555050505050565b6000806006600084815260200190815260200160002090508060010154915050919050565b60008054906101000a900473ffffffffffffffffffffffffffffffffffffffff1681565b600080600080600080600260009054906101000a900473ffffffffffffffffffffffffffffffffffffffff1673ffffffffffffffffffffffffffffffffffffffff1663feaf968c6040518163ffffffff1660e01b815260040160a06040518083038186803b15801561211757600080fd5b505afa15801561212b573d6000803e3d6000fd5b505050506040513d60a081101561214157600080fd5b81019080805190602001909291908051906020019092919080519060200190929190805190602001909291908051906020019092919050505094509450945094509450600082116121fa576040517f08c379a00000000000000000000000000000000000000000000000000000000081526004018080602001828103825260128152602001807f526f756e64206e6f7420636f6d706c657465000000000000000000000000000081525060200191505060405180910390fd5b839550505050505090565b60008060066000858152602001908152602001600020905080600801600084600281111561222f57fe5b600281111561223a57fe5b81526020019081526020016000205491505092915050565b6000806006600084815260200190815260200160002090508060050160009054906101000a900460ff16915050919050565b8060028081111561229157fe5b61229a82612aca565b60028111156122a557fe5b146122fb576040517f08c379a00000000000000000000000000000000000000000000000000000000081526004018080602001828103825260468152602001806131be6046913960600191505060405180910390fd5b600060066000848152602001908152602001600020905060008160070160003373ffffffffffffffffffffffffffffffffffffffff1673ffffffffffffffffffffffffffffffffffffffff16815260200190815260200160002060050154116123af576040517f08c379a00000000000000000000000000000000000000000000000000000000081526004018080602001828103825260268152602001806133916026913960400191505060405180910390fd5b600015158160070160003373ffffffffffffffffffffffffffffffffffffffff1673ffffffffffffffffffffffffffffffffffffffff16815260200190815260200160002060040160009054906101000a900460ff1615151461245d576040517f08c379a00000000000000000000000000000000000000000000000000000000081526004018080602001828103825260458152602001806133b76045913960600191505060405180910390fd5b60018160070160003373ffffffffffffffffffffffffffffffffffffffff1673ffffffffffffffffffffffffffffffffffffffff16815260200190815260200160002060040160006101000a81548160ff0219169083151502179055503373ffffffffffffffffffffffffffffffffffffffff166108fc8260070160003373ffffffffffffffffffffffffffffffffffffffff1673ffffffffffffffffffffffffffffffffffffffff168152602001908152602001600020600501549081150290604051600060405180830381858888f19350505050158015612544573d6000803e3d6000fd5b503373ffffffffffffffffffffffffffffffffffffffff16837f235f8ab60402009e52744fcb2965dd26c947e7340af8e0ed0ec189d458dc92cb8360070160003373ffffffffffffffffffffffffffffffffffffffff1673ffffffffffffffffffffffffffffffffffffffff168152602001908152602001600020600501546040518082815260200191505060405180910390a3505050565b60008054906101000a900473ffffffffffffffffffffffffffffffffffffffff1673ffffffffffffffffffffffffffffffffffffffff163373ffffffffffffffffffffffffffffffffffffffff1614612681576040517f08c379a000000000000000000000000000000000000000000000000000000000815260040180806020018281038252603581526020018061335c6035913960400191505060405180910390fd5b600260149054906101000a900460ff1661269a57600080fd5b6000600260146101000a81548160ff021916908315150217905550565b6000806006600084815260200190815260200160002090508060020154915050919050565b60066020528060005260406000206000915090508060000160009054906101000a900460ff16908060010154908060020154908060030154908060040154908060050160009054906101000a900460ff16908060060154908060090154905088565b6000806006600085815260200190815260200160002090508060070160008473ffffffffffffffffffffffffffffffffffffffff1673ffffffffffffffffffffffffffffffffffffffff16815260200190815260200160002060000160009054906101000a900460ff1691505092915050565b6000806006600085815260200190815260200160002090508060070160008473ffffffffffffffffffffffffffffffffffffffff1673ffffffffffffffffffffffffffffffffffffffff1681526020019081526020016000206005015491505092915050565b6000806006600084815260200190815260200160002090508060040154915050919050565b60055481565b6000806006600085815260200190815260200160002090508060070160008473ffffffffffffffffffffffffffffffffffffffff1673ffffffffffffffffffffffffffffffffffffffff16815260200190815260200160002060020160009054906101000a900460ff1691505092915050565b6000806000806000600260009054906101000a900473ffffffffffffffffffffffffffffffffffffffff1673ffffffffffffffffffffffffffffffffffffffff1663feaf968c6040518163ffffffff1660e01b815260040160a06040518083038186803b15801561292557600080fd5b505afa158015612939573d6000803e3d6000fd5b505050506040513d60a081101561294f57600080fd5b810190808051906020019092919080519060200190929190805190602001909291908051906020019092919080519060200190929190505050909150508093508194508295505050505b85811115612aad57828060019003935050600260009054906101000a900473ffffffffffffffffffffffffffffffffffffffff1673ffffffffffffffffffffffffffffffffffffffff16639a6fc8f5846040518263ffffffff1660e01b8152600401808269ffffffffffffffffffff16815260200191505060a06040518083038186803b158015612a2957600080fd5b505afa158015612a3d573d6000803e3d6000fd5b505050506040513d60a0811015612a5357600080fd5b81019080805190602001909291908051906020019092919080519060200190929190805190602001909291908051906020019092919050505090915050809350819450829550505050858111612aa857612aad565b612999565b81838069ffffffffffffffffffff16905094509450505050915091565b60008060066000848152602001908152602001600020905060006002811115612aef57fe5b8160000160009054906101000a900460ff166002811115612b0c57fe5b148015612b1c5750806002015442115b15612b2b576001915050612b41565b8060000160009054906101000a900460ff169150505b919050565b60045481565b60008060066000858152602001908152602001600020905060008160070160008573ffffffffffffffffffffffffffffffffffffffff1673ffffffffffffffffffffffffffffffffffffffff16815260200190815260200160002060010160008360050160009054906101000a900460ff166002811115612bc957fe5b6002811115612bd457fe5b815260200190815260200160002054905060008260080160008460050160009054906101000a900460ff166002811115612c0a57fe5b6002811115612c1557fe5b81526020019081526020016000205490506000612c3f828560090154612eec90919063ffffffff16565b9050612c6682612c588584612dde90919063ffffffff16565b612d9490919063ffffffff16565b9450612c7b8386612e6490919063ffffffff16565b94505050505092915050565b60008054906101000a900473ffffffffffffffffffffffffffffffffffffffff1673ffffffffffffffffffffffffffffffffffffffff163373ffffffffffffffffffffffffffffffffffffffff1614612d2b576040517f08c379a000000000000000000000000000000000000000000000000000000000815260040180806020018281038252603581526020018061335c6035913960400191505060405180910390fd5b80600160006101000a81548173ffffffffffffffffffffffffffffffffffffffff021916908373ffffffffffffffffffffffffffffffffffffffff16021790555050565b6000806006600084815260200190815260200160002090508060030154915050919050565b6000612dd683836040518060400160405280601a81526020017f536166654d6174683a206469766973696f6e206279207a65726f000000000000815250612f66565b905092915050565b600080831415612df15760009050612e5e565b6000828402905082848281612e0257fe5b0414612e59576040517f08c379a00000000000000000000000000000000000000000000000000000000081526004018080602001828103825260218152602001806132786021913960400191505060405180910390fd5b809150505b92915050565b600080828401905083811015612ee2576040517f08c379a000000000000000000000000000000000000000000000000000000000815260040180806020018281038252601b8152602001807f536166654d6174683a206164646974696f6e206f766572666c6f77000000000081525060200191505060405180910390fd5b8091505092915050565b6000612f2e83836040518060400160405280601e81526020017f536166654d6174683a207375627472616374696f6e206f766572666c6f77000081525061302c565b905092915050565b6000612f5d82612f4f8587612dde90919063ffffffff16565b612d9490919063ffffffff16565b90509392505050565b60008083118290613012576040517f08c379a00000000000000000000000000000000000000000000000000000000081526004018080602001828103825283818151815260200191508051906020019080838360005b83811015612fd7578082015181840152602081019050612fbc565b50505050905090810190601f1680156130045780820380516001836020036101000a031916815260200191505b509250505060405180910390fd5b50600083858161301e57fe5b049050809150509392505050565b60008383111582906130d9576040517f08c379a00000000000000000000000000000000000000000000000000000000081526004018080602001828103825283818151815260200191508051906020019080838360005b8381101561309e578082015181840152602081019050613083565b50505050905090810190601f1680156130cb5780820380516001836020036101000a031916815260200191505b509250505060405180910390fd5b506000838503905080915050939250505056fe3d3d3d20596f7520616c726561647920636c61696d656420796f75722077696e6e696e677320666f722074686973206d61726b6574203a28203d3d3d3d3d3d20546865206f776e65722068617320706175736564206d61726b6574206372656174696f6e203d3d3d3d3d3d20596f7572206265742073686f756c642062652067726561746572207468616e2030203d3d3d3d3d3d205468652070726564696374696f6e206d61726b6574206d757374206265206c69766520746f2063616c6c20746869732066756e6374696f6e203d3d3d3d3d3d205468652070726564696374696f6e206d61726b6574206d75737420626520736574746c656420746f206578656375746520746869732066756e6374696f6e203d3d3d3d3d3d20596f7520616c726561647920636c61696d656420796f7572206372656174696f6e2072657761726420666f722074686973206d61726b6574203a28203d3d3d3d3d3d20596f752068617665206e6f2062657473206f6e207468652077696e6e696e67206f7074696f6e203a28203d3d3d536166654d6174683a206d756c7469706c69636174696f6e206f766572666c6f773d3d3d205468652070726564696374696f6e206d61726b65742063616e6e6f7420626520736574746c656420796574203a28203d3d3d3d3d3d20506c656173652075736520746865206465646963617465642066756e6374696f6e7320746f20706c616365206265747320616e642f6f72207472616e7366657220657468657220696e746f207468697320736d61727420636f6e7472616374203d3d3d3d3d3d20596f7520646964206e6f74206372656174652074686973206d61726b6574203d3d3d3d3d3d204f6e6c7920746865206f776e657220616464726573732063616e2063616c6c20746869732066756e6374696f6e203d3d3d3d3d3d20596f7520646964206e6f7420736574746c652074686973206d61726b6574203d3d3d3d3d3d20596f7520616c726561647920636c61696d656420796f757220736574746c656d656e742072657761726420666f722074686973206d61726b6574203a28203d3d3d3d3d3d205468652070726564696374696f6e206d61726b6574206d75737420626520696e20736574746c656d656e7420746f2063616c6c20746869732066756e6374696f6e203d3d3da2646970667358221220008e28a0e64fd305d241d6adb8ead8d0c8253c816ce761e308cb0d4543ef758764736f6c63430007030033536166654d6174683a206d756c7469706c69636174696f6e206f766572666c6f77",
  "immutableReferences": {},
  "source": "// SPDX-License-Identifier: MIT\npragma solidity ^0.7.3;\n\nimport \"./external/SafeMath.sol\";\nimport \"./interfaces/AggregatorV3Interface.sol\";\n\ncontract Predicty {\n\n  using SafeMath for *;\n\n  enum Option {\n    Bullish,\n    Neutral,\n    Bearish\n  }\n\n  enum MarketStatus {\n    Live,\n    InSettlement,\n    Settled\n  }\n\n  struct Market {\n    MarketStatus state;\n    uint startTime;\n    uint expireTime;\n    uint neutralMinValue;\n    uint neutralMaxValue;\n    Option winningOption;\n    uint settleTime;\n    mapping(address => User) users;\n    mapping(Option => uint) totalBets;\n    uint totalPool;\n  }\n\n  struct User {\n    bool claimedWinnings;\n    mapping(Option => uint) amountStaked;\n    bool claimedCreationReward;\n    uint creationReward;\n    bool claimedSettlementReward;\n    uint settlementReward;\n  }\n\n  address payable public owner;\n  address public oracle;\n  AggregatorV3Interface internal priceFeed;\n  bool public marketCreationPaused;\n  uint constant commissionPercentage = 10;\n  uint constant optionRangePercentage = 40;\n  uint public commissionAmount;\n  uint public marketCount;\n  uint public marketDuration;\n\n  mapping(uint => Market) public markets;\n\n  event LogNewMarketCreated(uint indexed marketId, uint price);\n  event LogBetPlaced(uint indexed marketId, address indexed user, Option option, uint value);\n  event LogWinningsClaimed(uint indexed marketId, address indexed user, uint winnings);\n  event LogResultPosted(uint indexed marketId, address indexed oracle, Option option);\n  event LogCreationRewardClaimed(uint indexed marketId, address indexed user, uint creationReward);\n  event LogSettlementRewardClaimed(uint indexed marketId, address indexed user, uint settlementReward);\n\n  /**\n  * @dev Modifier that only allows the authorized owner addresses to execute the function.\n  */\n  modifier onlyOwner() {\n    require(msg.sender == owner, \"=== Only the owner address can call this function ===\");\n    _;\n  }\n\n  /**\n  * @dev Modifier that only allows a prediction market in the Live state to execute the function.\n  * @param _marketId The id of the prediction market instance on which this modifier is called.\n  */\n  modifier onlyLive(uint _marketId) {\n    require(getMarketStatus(_marketId) == MarketStatus.Live, \"=== The prediction market must be live to call this function ===\");\n    _;\n  }\n\n  /**\n  * @dev Modifier that only allows a prediction market in the InSettlement state to execute the function.\n  * @param _marketId The id of the prediction market instance on which this modifier is called.\n  */\n  modifier onlyInSettlement(uint _marketId) {\n    require(getMarketStatus(_marketId) == MarketStatus.InSettlement, \"=== The prediction market must be in settlement to call this function ===\");\n    require(block.timestamp > getMarketSettleTime(_marketId), \"=== The prediction market cannot be settled yet :( ===\");\n    _;\n  }\n\n  /**\n  * @dev Modifier that only allows a prediction market in the Settled state to execute the function.\n  * @param _marketId The id of the prediction market instance on which this modifier is called.\n  */\n  modifier onlySettled(uint _marketId) {\n    require(getMarketStatus(_marketId) == MarketStatus.Settled, \"=== The prediction market must be settled to execute this function ===\");\n    _;\n  }\n\n  /**\n  * @dev Deploys the smart contract and fires up the first prediction market.\n  * @param _oracle Sets the address of the oracle used used as pricefeed. Rinkeby ETH/USD price oracle = 0x8A753747A1Fa494EC906cE90E9f37563A8AF630e.\n  * @param _duration Sets the duration of the prediction market cycles, i.e. duration = 1 hours will make sure that all prediction markets started by this smart contract will be Live for 1 hour and subsequently be InSetllement for 1 hour.\n  */\n  constructor(address _oracle, uint _duration) {\n    oracle = _oracle;\n    priceFeed = AggregatorV3Interface(oracle);\n    owner = msg.sender;\n    marketDuration = _duration;\n    marketCount = 0;\n    uint _price = getLatestPrice(); //returns latest ETH/USD in the following format: 40345000000 (8 decimals)\n\n    Market storage newMarket = markets[marketCount];\n    newMarket.state = MarketStatus.Live;\n    newMarket.startTime = (block.timestamp.div(3600)).mul(3600);\n    newMarket.expireTime = newMarket.startTime.add(marketDuration);\n    newMarket.neutralMinValue = _price.sub(_calculatePercentage(optionRangePercentage, _price, 10000));\n    newMarket.neutralMaxValue = _price.add(_calculatePercentage(optionRangePercentage, _price, 10000));\n    newMarket.settleTime = newMarket.startTime.add(marketDuration.mul(2));\n\n    emit LogNewMarketCreated(marketCount, _price);\n  }\n\n  /**\n  * @dev Places a bet amount on a specific bet option in the prediction market that is currently Live.\n  * @param _option The specific bet option for which this function is called, i.e. Bullish, Neutral, or Bearish.\n  */\n  function placeBet(Option _option) external payable onlyLive(marketCount) {\n    Market storage m = markets[marketCount];\n    require(msg.value > 0,\"=== Your bet should be greater than 0 ===\");\n\n    uint _predictionStake = msg.value;\n    uint _commissionStake = _calculatePercentage(commissionPercentage, _predictionStake, 1000);\n    commissionAmount = commissionAmount.add(_commissionStake);\n    _predictionStake = _predictionStake.sub(_commissionStake);\n\n    m.totalBets[_option] = m.totalBets[_option].add(_predictionStake);\n    m.users[msg.sender].amountStaked[_option] = m.users[msg.sender].amountStaked[_option].add(_predictionStake);\n    m.totalPool = m.totalPool.add(_predictionStake);\n\n    emit LogBetPlaced(marketCount, msg.sender, _option, _predictionStake);\n  }\n\n  /**\n  * @dev Settles the prediction market that is currently InSettlement, by calling the configured pricefeed oracle and incentivising the user address address for calling this function.\n  */\n  function settleMarket() external onlyInSettlement(marketCount) {\n    Market storage m = markets[marketCount];\n\n    (uint _price, ) = getSettlementPrice(m.settleTime);\n\n    if(_price < m.neutralMinValue) {\n      m.winningOption = Option.Bearish;\n    } else if(_price > m.neutralMaxValue) {\n      m.winningOption = Option.Bullish;\n    } else {\n      m.winningOption = Option.Neutral;\n    }\n\n    uint reward = _calculatePercentage(commissionPercentage, commissionAmount, 100);\n    m.users[msg.sender].settlementReward = m.users[msg.sender].settlementReward.add(reward);\n    commissionAmount = commissionAmount.sub(reward);\n\n    emit LogResultPosted(marketCount, msg.sender, m.winningOption);\n    m.state = MarketStatus.Settled;\n  }\n\n  /**\n  * @dev Creates a new prediction market (after the previous one was settled), by calling the configured pricefeed oracle and incentivising the user address address for calling this function.\n  * @return success Returns whether the market creation was successful.\n  */\n  function createNewMarket() public onlySettled(marketCount) returns(bool success) {\n    require(!marketCreationPaused, \"=== The owner has paused market creation ===\");\n    marketCount = marketCount.add(1);\n\n    uint _price = getLatestPrice(); //returns latest ETH/USD in the following format: 40345000000 (8 decimals)\n\n    Market storage newMarket = markets[marketCount];\n    newMarket.state = MarketStatus.Live;\n    newMarket.startTime = (block.timestamp.div(3600)).mul(3600);\n    newMarket.expireTime = newMarket.startTime.add(marketDuration);\n    newMarket.neutralMinValue = _price.sub(_calculatePercentage(optionRangePercentage, _price, 10000));\n    newMarket.neutralMaxValue = _price.add(_calculatePercentage(optionRangePercentage, _price, 10000));\n    newMarket.settleTime = newMarket.startTime.add(marketDuration.mul(2));\n\n    uint reward = _calculatePercentage(commissionPercentage, commissionAmount, 100);\n    newMarket.users[msg.sender].creationReward = newMarket.users[msg.sender].creationReward.add(reward);\n    commissionAmount = commissionAmount.sub(reward);\n\n    emit LogNewMarketCreated(marketCount, _price);\n\n    return true;\n  }\n\n  /**\n  * @dev Calculates the winnings for a specific user in the prediction market.\n  * @param _marketId The id of the prediction market instance on which this function is called.\n  * @param _user The specific user address for which this function is called.\n  * @return winnings Returns the total amount that has been won by a specific user address in the prediction market.\n  */\n  function calculateWinnings(uint _marketId, address _user) public view returns(uint winnings) {\n    Market storage m = markets[_marketId];\n    uint winningBet = m.users[_user].amountStaked[m.winningOption];\n    uint winningTotal = m.totalBets[m.winningOption];\n    uint loserPool = m.totalPool.sub(winningTotal);\n    winnings = loserPool.mul(winningBet).div(winningTotal);\n    winnings = winnings.add(winningBet);\n\n    return winnings;\n  }\n\n  /**\n  * @dev Allows the calling user address to withdraw his/her winnings in the prediction market, after settlement.\n  * @param _marketId The id of the prediction market instance on which this function is called.\n  */\n  function withdrawWinnings(uint _marketId) external onlySettled(_marketId) {\n    Market storage m = markets[_marketId];\n    require(m.users[msg.sender].claimedWinnings == false, \"=== You already claimed your winnings for this market :( ===\");\n\n    uint winningBet = m.users[msg.sender].amountStaked[m.winningOption];\n    require(winningBet > 0, \"=== You have no bets on the winning option :( ===\");\n\n    uint winnings = calculateWinnings(_marketId, msg.sender);\n\n    m.users[msg.sender].claimedWinnings = true;\n    msg.sender.transfer(winnings);\n\n    emit LogWinningsClaimed(_marketId, msg.sender, winnings);\n  }\n\n  /**\n  * @dev Allows the calling user address to withdraw his/her creation reward in the prediction market, after settlement.\n  * @param _marketId The id of the prediction market instance on which this function is called.\n  */\n  function withdrawCreationReward(uint _marketId) external onlySettled(_marketId) {\n    Market storage m = markets[_marketId];\n    require(m.users[msg.sender].creationReward > 0, \"=== You did not create this market ===\");\n    require(m.users[msg.sender].claimedCreationReward == false, \"=== You already claimed your creation reward for this market :( ===\");\n\n    m.users[msg.sender].claimedCreationReward = true;\n\n    msg.sender.transfer(m.users[msg.sender].creationReward);\n\n    emit LogCreationRewardClaimed(_marketId, msg.sender, m.users[msg.sender].creationReward);\n  }\n\n  /**\n  * @dev Allows the calling user address to withdraw his/her settlement reward in the prediction market, after settlement.\n  * @param _marketId The id of the prediction market instance on which this function is called.\n  */\n  function withdrawSettlementReward(uint _marketId) external onlySettled(_marketId) {\n    Market storage m = markets[_marketId];\n    require(m.users[msg.sender].settlementReward > 0, \"=== You did not settle this market ===\");\n    require(m.users[msg.sender].claimedSettlementReward == false, \"=== You already claimed your settlement reward for this market :( ===\");\n\n    m.users[msg.sender].claimedSettlementReward = true;\n\n    msg.sender.transfer(m.users[msg.sender].settlementReward);\n\n    emit LogSettlementRewardClaimed(_marketId, msg.sender, m.users[msg.sender].settlementReward);\n  }\n\n  /**\n  * @dev Gets the latest/current asset price (e.g. ETH/USD) from the configured pricefeed oracle.\n  * @return latestPrice Returns the latest/current asset price (e.g. ETH/USD) from the configured pricefeed oracle.\n  */\n  function getLatestPrice() public view returns (uint latestPrice) {\n    (uint80 roundId, int price, uint startedAt, uint timeStamp, uint80 answeredInRound) = priceFeed.latestRoundData();\n    // If the round is not complete yet, timestamp is 0\n    require(timeStamp > 0, \"Round not complete\");\n    return uint256(price);\n  }\n\n  /**\n  * @dev Gets the historical asset price (e.g. ETH/USD) at prediction market settlement time from the configured pricefeed oracle.\n  * @param _settleTime The prediction market settlement timestamp, for which an historical asset price should be returned.\n  * @return settlementPrice Returns the historical asset price (e.g. ETH/USD) at prediction market settlement time from the configured pricefeed oracle.\n  * @return roundId Returns the matching roundId from the configured pricefeed oracle, for the historical asset price.\n  */\n  function getSettlementPrice(uint _settleTime) public view returns(uint settlementPrice, uint roundId) {\n    uint80 currentRoundId;\n    int currentRoundPrice;\n    uint currentRoundTimeStamp;\n    (currentRoundId, currentRoundPrice, , currentRoundTimeStamp, ) = priceFeed.latestRoundData();\n      while(currentRoundTimeStamp > _settleTime) {\n        currentRoundId--;\n        (currentRoundId, currentRoundPrice, , currentRoundTimeStamp, ) = priceFeed.getRoundData(currentRoundId);\n        if(currentRoundTimeStamp <= _settleTime) {\n          break;\n        }\n      }\n    return (uint(currentRoundPrice), currentRoundId);\n  }\n\n  /**\n  * @dev Gets the status of the prediction market.\n  * @param _marketId The id of the prediction market instance on which this function is called.\n  * @return status Returns the updated status of the prediction market.\n  */\n  function getMarketStatus(uint _marketId) public view returns(MarketStatus status){\n    Market storage m = markets[_marketId];\n    if(m.state == MarketStatus.Live && block.timestamp > m.expireTime) {\n      return MarketStatus.InSettlement;\n    } else {\n      return m.state;\n    }\n  }\n\n  /**\n  * @dev Gets the prediction market start timestamp (as seconds since unix epoch).\n  * @param _marketId The id of the prediction market instance on which this function is called.\n  * @return startTime Returns the start time of the prediction market.\n  */\n  function getMarketStartTime(uint _marketId) public view returns(uint startTime) {\n    Market storage m = markets[_marketId];\n    return m.startTime;\n  }\n\n  /**\n  * @dev Gets the prediction market expire timestamp (as seconds since unix epoch). After the expiry of the prediction market users can no longer place bets.\n  * @param _marketId The id of the prediction market instance on which this function is called.\n  * @return expireTime Returns the expire time of the prediction market.\n  */\n  function getMarketExpireTime(uint _marketId) public view returns(uint expireTime) {\n    Market storage m = markets[_marketId];\n    return m.expireTime;\n  }\n\n  /**\n  * @dev Gets the prediction market settlement timestamp (as seconds since unix epoch). As of the settlement timestamp, the pricefeed oracle can be called to settle the prediction market.\n  * @param _marketId The id of the prediction market instance on which this function is called.\n  * @return settleTime Returns the settlement time of the prediction market.\n  */\n  function getMarketSettleTime(uint _marketId) public view returns(uint settleTime) {\n    Market storage m = markets[_marketId];\n    return m.settleTime;\n  }\n\n  /**\n  * @dev Gets the prediction market neutral minimum price value. The neutral minimum price value forms the lower bound of the Neutral betting option.\n  * @param _marketId The id of the prediction market instance on which this function is called.\n  * @return minValue Returns the neutral minimum price value of the prediction market.\n  */\n  function getNeutralMinValue(uint _marketId) public view returns(uint minValue) {\n    Market storage m = markets[_marketId];\n    return m.neutralMinValue;\n  }\n\n  /**\n  * @dev Gets the prediction market neutral maximum price value. The neutral maximum price value forms the upper bound of the Neutral betting option.\n  * @param _marketId The id of the prediction market instance on which this function is called.\n  * @return maxValue Returns the neutral maximum price value of the prediction market.\n  */\n  function getNeutralMaxValue(uint _marketId) public view returns(uint maxValue) {\n    Market storage m = markets[_marketId];\n    return m.neutralMaxValue;\n  }\n\n  /**\n  * @dev Gets the winning option after prediction market settlement.\n  * @param _marketId The id of the prediction market instance on which this function is called.\n  * @return winner Returns the winning option, i.e. Bullish, Neutral, or Bearish.\n  */\n  function getWinningOption(uint _marketId) public view returns(Option winner) {\n    Market storage m = markets[_marketId];\n    return m.winningOption;\n  }\n\n  /**\n  * @dev Gets the total amount that has been staked on all bet options together in the prediction market.\n  * @param _marketId The id of the prediction market instance on which this function is called.\n  * @return totalPool Returns the total amount that has been staked on all bet options together in the prediction market.\n  */\n  function getMarketTotalPool(uint _marketId) public view returns(uint totalPool) {\n    Market storage m = markets[_marketId];\n    return m.totalPool;\n  }\n\n  /**\n  * @dev Gets the total amount that has been staked on a specific bet option in the prediction market.\n  * @param _marketId The id of the prediction market instance on which this function is called.\n  * @param _option The specific bet option for which this function is called, i.e. Bullish, Neutral, or Bearish.\n  * @return totalBets Returns the total amount that has been staked on a specific bet option in the prediction market.\n  */\n  function getMarketTotalBets(uint _marketId, Option _option) public view returns(uint totalBets) {\n    Market storage m = markets[_marketId];\n    return m.totalBets[_option];\n  }\n\n  /**\n  * @dev Gets a boolean value returning whether a specific user address has already claimed his/her winnings in the predition market.\n  * @param _marketId The id of the prediction market instance on which this function is called.\n  * @param _user The specific user address for which this function is called.\n  * @return claimed Returns whether a specific user address has already claimed his/her winnings in the predition market.\n  */\n  function getUserClaimedWinnings(uint _marketId, address _user) public view returns(bool claimed) {\n    Market storage m = markets[_marketId];\n    return m.users[_user].claimedWinnings;\n  }\n\n  /**\n  * @dev Gets the total amount that has been staked by a specific user address on a specific bet option in the prediction market.\n  * @param _marketId The id of the prediction market instance on which this function is called.\n  * @param _user The specific user address for which this function is called.\n  * @param _option The specific bet option for which this function is called, i.e. Bullish, Neutral, or Bearish.\n  * @return amountStaked Returns the total amount that has been staked by a specific user address on a specific bet option in the prediction market.\n  */\n  function getUserAmountStaked(uint _marketId, address _user, Option _option) public view returns(uint amountStaked) {\n    Market storage m = markets[_marketId];\n    return m.users[_user].amountStaked[_option];\n  }\n\n  /**\n  * @dev Gets a boolean value returning whether a specific user address has already claimed his/her reward for creating the predition market.\n  * @param _marketId The id of the prediction market instance on which this function is called.\n  * @param _user The specific user address for which this function is called.\n  * @return claimed Returns whether a specific user address has already claimed his/her reward for creating the predition market.\n  */\n  function getUserClaimedCreationReward(uint _marketId, address _user) public view returns(bool claimed) {\n    Market storage m = markets[_marketId];\n    return m.users[_user].claimedCreationReward;\n  }\n\n  /**\n  * @dev Gets the reward amount that has been awarded to a specific user address for creating the prediction market.\n  * @param _marketId The id of the prediction market instance on which this function is called.\n  * @param _user The specific user address for which this function is called.\n  * @return reward Returns the reward amount that has been awarded to a specific user address for creating the prediction market.\n  */\n  function getUserCreationReward(uint _marketId, address _user) public view returns(uint reward) {\n    Market storage m = markets[_marketId];\n    return m.users[_user].creationReward;\n  }\n\n  /**\n  * @dev Gets a boolean value returning whether a specific user address has already claimed his/her reward for settling the predition market.\n  * @param _marketId The id of the prediction market instance on which this function is called.\n  * @param _user The specific user address for which this function is called.\n  * @return claimed Returns whether a specific user address has already claimed his/her reward for settling the predition market.\n  */\n  function getUserClaimedSettlementReward(uint _marketId, address _user) public view returns(bool claimed) {\n    Market storage m = markets[_marketId];\n    return m.users[_user].claimedSettlementReward;\n  }\n\n  /**\n  * @dev Gets the reward amount that has been awarded to a specific user address for settling the prediction market.\n  * @param _marketId The id of the prediction market instance on which this function is called.\n  * @param _user The specific user address for which this function is called.\n  * @return reward Returns the reward amount that has been awarded to a specific user address for settling the prediction market.\n  */\n  function getUserSettlementReward(uint _marketId, address _user) public view returns(uint reward) {\n    Market storage m = markets[_marketId];\n    return m.users[_user].settlementReward;\n  }\n\n  /**\n  * @dev Gets the current balance of the smart contract.\n  * @return balance Returns the current balance of the smart contract.\n  */\n  function getContractBalance() public view returns(uint balance) {\n    return address(this).balance;\n  }\n\n  /**\n  * @dev Helper function to get the percentage value for a given input value.\n  * @param _percent The percentage value.\n  * @param _value The input value.\n  * @param _divisor The divisor value.\n  * @return The percentage value for a given input value.\n  */\n  function _calculatePercentage(uint256 _percent, uint256 _value, uint256 _divisor) internal pure returns(uint256) {\n    return _percent.mul(_value).div(_divisor);\n  }\n\n  /**\n  * @dev Updates the address of the pricefeed oracle (e.g. the ChainLink ETH/USD pricefeed oracle).\n  * @param _oracle The new address of the pricefeed oracle.\n  */\n  function updateOracleAddress(address _oracle) external onlyOwner {\n    oracle = _oracle;\n  }\n\n  /**\n  * @dev Updates the flag to pause market creation, in case of issues.\n  */\n  function pauseMarketCreation() external onlyOwner {\n    require(!marketCreationPaused);\n    marketCreationPaused = true;\n  }\n\n  /**\n  * @dev Updates the flag to resume market creation, when issues are solved.\n  */\n  function resumeMarketCreation() external onlyOwner {\n    require(marketCreationPaused);\n    marketCreationPaused = false;\n  }\n\n  /**\n  * @dev Destroys the smart contract instance and sends all remaining Ether stored in the smart contract to the owner address.\n  */\n  function destroy() public onlyOwner {\n    selfdestruct(owner);\n  }\n\n  fallback () external payable {\n    revert(\"=== Please use the dedicated functions to place bets and/or transfer ether into this smart contract ===\");\n  }\n\n  receive() external payable {\n    revert(\"=== Please use the dedicated functions to place bets and/or transfer ether into this smart contract ===\");\n  }\n\n}\n",
  "sourcePath": "/home/koen/iteration01/predicty/contracts/Predicty.sol",
  "compiler": {
    "name": "solc",
    "version": "0.7.3+commit.9bfce1f6.Emscripten.clang"
  },
  "schemaVersion": "3.3.0",
  "updatedAt": "2020-11-22T17:13:35.301Z",
  "networkType": "ethereum",
  "devdoc": {
    "kind": "dev",
    "methods": {
      "calculateWinnings(uint256,address)": {
        "details": "Calculates the winnings for a specific user in the prediction market.",
        "params": {
          "_marketId": "The id of the prediction market instance on which this function is called.",
          "_user": "The specific user address for which this function is called."
        },
        "returns": {
          "winnings": "Returns the total amount that has been won by a specific user address in the prediction market."
        }
      },
      "constructor": {
        "details": "Deploys the smart contract and fires up the first prediction market.",
        "params": {
          "_duration": "Sets the duration of the prediction market cycles, i.e. duration = 1 hours will make sure that all prediction markets started by this smart contract will be Live for 1 hour and subsequently be InSetllement for 1 hour.",
          "_oracle": "Sets the address of the oracle used used as pricefeed. Rinkeby ETH/USD price oracle = 0x8A753747A1Fa494EC906cE90E9f37563A8AF630e."
        }
      },
      "createNewMarket()": {
        "details": "Creates a new prediction market (after the previous one was settled), by calling the configured pricefeed oracle and incentivising the user address address for calling this function.",
        "returns": {
          "success": "Returns whether the market creation was successful."
        }
      },
      "destroy()": {
        "details": "Destroys the smart contract instance and sends all remaining Ether stored in the smart contract to the owner address."
      },
      "getContractBalance()": {
        "details": "Gets the current balance of the smart contract.",
        "returns": {
          "balance": "Returns the current balance of the smart contract."
        }
      },
      "getLatestPrice()": {
        "details": "Gets the latest/current asset price (e.g. ETH/USD) from the configured pricefeed oracle.",
        "returns": {
          "latestPrice": "Returns the latest/current asset price (e.g. ETH/USD) from the configured pricefeed oracle."
        }
      },
      "getMarketExpireTime(uint256)": {
        "details": "Gets the prediction market expire timestamp (as seconds since unix epoch). After the expiry of the prediction market users can no longer place bets.",
        "params": {
          "_marketId": "The id of the prediction market instance on which this function is called."
        },
        "returns": {
          "expireTime": "Returns the expire time of the prediction market."
        }
      },
      "getMarketSettleTime(uint256)": {
        "details": "Gets the prediction market settlement timestamp (as seconds since unix epoch). As of the settlement timestamp, the pricefeed oracle can be called to settle the prediction market.",
        "params": {
          "_marketId": "The id of the prediction market instance on which this function is called."
        },
        "returns": {
          "settleTime": "Returns the settlement time of the prediction market."
        }
      },
      "getMarketStartTime(uint256)": {
        "details": "Gets the prediction market start timestamp (as seconds since unix epoch).",
        "params": {
          "_marketId": "The id of the prediction market instance on which this function is called."
        },
        "returns": {
          "startTime": "Returns the start time of the prediction market."
        }
      },
      "getMarketStatus(uint256)": {
        "details": "Gets the status of the prediction market.",
        "params": {
          "_marketId": "The id of the prediction market instance on which this function is called."
        },
        "returns": {
          "status": "Returns the updated status of the prediction market."
        }
      },
      "getMarketTotalBets(uint256,uint8)": {
        "details": "Gets the total amount that has been staked on a specific bet option in the prediction market.",
        "params": {
          "_marketId": "The id of the prediction market instance on which this function is called.",
          "_option": "The specific bet option for which this function is called, i.e. Bullish, Neutral, or Bearish."
        },
        "returns": {
          "totalBets": "Returns the total amount that has been staked on a specific bet option in the prediction market."
        }
      },
      "getMarketTotalPool(uint256)": {
        "details": "Gets the total amount that has been staked on all bet options together in the prediction market.",
        "params": {
          "_marketId": "The id of the prediction market instance on which this function is called."
        },
        "returns": {
          "totalPool": "Returns the total amount that has been staked on all bet options together in the prediction market."
        }
      },
      "getNeutralMaxValue(uint256)": {
        "details": "Gets the prediction market neutral maximum price value. The neutral maximum price value forms the upper bound of the Neutral betting option.",
        "params": {
          "_marketId": "The id of the prediction market instance on which this function is called."
        },
        "returns": {
          "maxValue": "Returns the neutral maximum price value of the prediction market."
        }
      },
      "getNeutralMinValue(uint256)": {
        "details": "Gets the prediction market neutral minimum price value. The neutral minimum price value forms the lower bound of the Neutral betting option.",
        "params": {
          "_marketId": "The id of the prediction market instance on which this function is called."
        },
        "returns": {
          "minValue": "Returns the neutral minimum price value of the prediction market."
        }
      },
      "getSettlementPrice(uint256)": {
        "details": "Gets the historical asset price (e.g. ETH/USD) at prediction market settlement time from the configured pricefeed oracle.",
        "params": {
          "_settleTime": "The prediction market settlement timestamp, for which an historical asset price should be returned."
        },
        "returns": {
          "roundId": "Returns the matching roundId from the configured pricefeed oracle, for the historical asset price.",
          "settlementPrice": "Returns the historical asset price (e.g. ETH/USD) at prediction market settlement time from the configured pricefeed oracle."
        }
      },
      "getUserAmountStaked(uint256,address,uint8)": {
        "details": "Gets the total amount that has been staked by a specific user address on a specific bet option in the prediction market.",
        "params": {
          "_marketId": "The id of the prediction market instance on which this function is called.",
          "_option": "The specific bet option for which this function is called, i.e. Bullish, Neutral, or Bearish.",
          "_user": "The specific user address for which this function is called."
        },
        "returns": {
          "amountStaked": "Returns the total amount that has been staked by a specific user address on a specific bet option in the prediction market."
        }
      },
      "getUserClaimedCreationReward(uint256,address)": {
        "details": "Gets a boolean value returning whether a specific user address has already claimed his/her reward for creating the predition market.",
        "params": {
          "_marketId": "The id of the prediction market instance on which this function is called.",
          "_user": "The specific user address for which this function is called."
        },
        "returns": {
          "claimed": "Returns whether a specific user address has already claimed his/her reward for creating the predition market."
        }
      },
      "getUserClaimedSettlementReward(uint256,address)": {
        "details": "Gets a boolean value returning whether a specific user address has already claimed his/her reward for settling the predition market.",
        "params": {
          "_marketId": "The id of the prediction market instance on which this function is called.",
          "_user": "The specific user address for which this function is called."
        },
        "returns": {
          "claimed": "Returns whether a specific user address has already claimed his/her reward for settling the predition market."
        }
      },
      "getUserClaimedWinnings(uint256,address)": {
        "details": "Gets a boolean value returning whether a specific user address has already claimed his/her winnings in the predition market.",
        "params": {
          "_marketId": "The id of the prediction market instance on which this function is called.",
          "_user": "The specific user address for which this function is called."
        },
        "returns": {
          "claimed": "Returns whether a specific user address has already claimed his/her winnings in the predition market."
        }
      },
      "getUserCreationReward(uint256,address)": {
        "details": "Gets the reward amount that has been awarded to a specific user address for creating the prediction market.",
        "params": {
          "_marketId": "The id of the prediction market instance on which this function is called.",
          "_user": "The specific user address for which this function is called."
        },
        "returns": {
          "reward": "Returns the reward amount that has been awarded to a specific user address for creating the prediction market."
        }
      },
      "getUserSettlementReward(uint256,address)": {
        "details": "Gets the reward amount that has been awarded to a specific user address for settling the prediction market.",
        "params": {
          "_marketId": "The id of the prediction market instance on which this function is called.",
          "_user": "The specific user address for which this function is called."
        },
        "returns": {
          "reward": "Returns the reward amount that has been awarded to a specific user address for settling the prediction market."
        }
      },
      "getWinningOption(uint256)": {
        "details": "Gets the winning option after prediction market settlement.",
        "params": {
          "_marketId": "The id of the prediction market instance on which this function is called."
        },
        "returns": {
          "winner": "Returns the winning option, i.e. Bullish, Neutral, or Bearish."
        }
      },
      "pauseMarketCreation()": {
        "details": "Updates the flag to pause market creation, in case of issues."
      },
      "placeBet(uint8)": {
        "details": "Places a bet amount on a specific bet option in the prediction market that is currently Live.",
        "params": {
          "_option": "The specific bet option for which this function is called, i.e. Bullish, Neutral, or Bearish."
        }
      },
      "resumeMarketCreation()": {
        "details": "Updates the flag to resume market creation, when issues are solved."
      },
      "settleMarket()": {
        "details": "Settles the prediction market that is currently InSettlement, by calling the configured pricefeed oracle and incentivising the user address address for calling this function."
      },
      "updateOracleAddress(address)": {
        "details": "Updates the address of the pricefeed oracle (e.g. the ChainLink ETH/USD pricefeed oracle).",
        "params": {
          "_oracle": "The new address of the pricefeed oracle."
        }
      },
      "withdrawCreationReward(uint256)": {
        "details": "Allows the calling user address to withdraw his/her creation reward in the prediction market, after settlement.",
        "params": {
          "_marketId": "The id of the prediction market instance on which this function is called."
        }
      },
      "withdrawSettlementReward(uint256)": {
        "details": "Allows the calling user address to withdraw his/her settlement reward in the prediction market, after settlement.",
        "params": {
          "_marketId": "The id of the prediction market instance on which this function is called."
        }
      },
      "withdrawWinnings(uint256)": {
        "details": "Allows the calling user address to withdraw his/her winnings in the prediction market, after settlement.",
        "params": {
          "_marketId": "The id of the prediction market instance on which this function is called."
        }
      }
    },
    "version": 1
  },
  "userdoc": {
    "kind": "user",
    "methods": {},
    "version": 1
  }
}